{
  "_format": "hh-sol-artifact-1",
  "contractName": "POCSORegistry",
  "sourceName": "Contracts/POCSORegistry.sol",
  "abi": [
    {
      "inputs": [],
      "stateMutability": "nonpayable",
      "type": "constructor"
    },
    {
      "anonymous": false,
      "inputs": [
        {
          "indexed": false,
          "internalType": "string",
          "name": "caseId",
          "type": "string"
        },
        {
          "indexed": false,
          "internalType": "string",
          "name": "ipfsCID",
          "type": "string"
        },
        {
          "indexed": false,
          "internalType": "uint256",
          "name": "riskScore",
          "type": "uint256"
        },
        {
          "indexed": false,
          "internalType": "string",
          "name": "category",
          "type": "string"
        },
        {
          "indexed": false,
          "internalType": "uint256",
          "name": "timestamp",
          "type": "uint256"
        }
      ],
      "name": "ReportSubmitted",
      "type": "event"
    },
    {
      "anonymous": false,
      "inputs": [
        {
          "indexed": false,
          "internalType": "string",
          "name": "caseId",
          "type": "string"
        },
        {
          "indexed": false,
          "internalType": "enum POCSORegistry.Status",
          "name": "newStatus",
          "type": "uint8"
        },
        {
          "indexed": false,
          "internalType": "string",
          "name": "notes",
          "type": "string"
        },
        {
          "indexed": false,
          "internalType": "uint256",
          "name": "timestamp",
          "type": "uint256"
        }
      ],
      "name": "StatusUpdated",
      "type": "event"
    },
    {
      "inputs": [],
      "name": "admin",
      "outputs": [
        {
          "internalType": "address",
          "name": "",
          "type": "address"
        }
      ],
      "stateMutability": "view",
      "type": "function"
    },
    {
      "inputs": [
        {
          "internalType": "string",
          "name": "",
          "type": "string"
        }
      ],
      "name": "caseIdToIndex",
      "outputs": [
        {
          "internalType": "uint256",
          "name": "",
          "type": "uint256"
        }
      ],
      "stateMutability": "view",
      "type": "function"
    },
    {
      "inputs": [],
      "name": "getAllReports",
      "outputs": [
        {
          "components": [
            {
              "internalType": "string",
              "name": "caseId",
              "type": "string"
            },
            {
              "internalType": "string",
              "name": "ipfsCID",
              "type": "string"
            },
            {
              "internalType": "uint256",
              "name": "riskScore",
              "type": "uint256"
            },
            {
              "internalType": "string",
              "name": "evidenceHash",
              "type": "string"
            },
            {
              "internalType": "string",
              "name": "category",
              "type": "string"
            },
            {
              "internalType": "enum POCSORegistry.Status",
              "name": "status",
              "type": "uint8"
            },
            {
              "internalType": "address",
              "name": "submittedBy",
              "type": "address"
            },
            {
              "internalType": "uint256",
              "name": "timestamp",
              "type": "uint256"
            },
            {
              "internalType": "string",
              "name": "notes",
              "type": "string"
            }
          ],
          "internalType": "struct POCSORegistry.Report[]",
          "name": "",
          "type": "tuple[]"
        }
      ],
      "stateMutability": "view",
      "type": "function"
    },
    {
      "inputs": [
        {
          "internalType": "string",
          "name": "_caseId",
          "type": "string"
        }
      ],
      "name": "getReport",
      "outputs": [
        {
          "internalType": "string",
          "name": "caseId",
          "type": "string"
        },
        {
          "internalType": "string",
          "name": "ipfsCID",
          "type": "string"
        },
        {
          "internalType": "uint256",
          "name": "riskScore",
          "type": "uint256"
        },
        {
          "internalType": "string",
          "name": "evidenceHash",
          "type": "string"
        },
        {
          "internalType": "string",
          "name": "category",
          "type": "string"
        },
        {
          "internalType": "enum POCSORegistry.Status",
          "name": "status",
          "type": "uint8"
        },
        {
          "internalType": "uint256",
          "name": "timestamp",
          "type": "uint256"
        },
        {
          "internalType": "string",
          "name": "notes",
          "type": "string"
        }
      ],
      "stateMutability": "view",
      "type": "function"
    },
    {
      "inputs": [],
      "name": "getReportCount",
      "outputs": [
        {
          "internalType": "uint256",
          "name": "",
          "type": "uint256"
        }
      ],
      "stateMutability": "view",
      "type": "function"
    },
    {
      "inputs": [
        {
          "internalType": "uint256",
          "name": "",
          "type": "uint256"
        }
      ],
      "name": "reports",
      "outputs": [
        {
          "internalType": "string",
          "name": "caseId",
          "type": "string"
        },
        {
          "internalType": "string",
          "name": "ipfsCID",
          "type": "string"
        },
        {
          "internalType": "uint256",
          "name": "riskScore",
          "type": "uint256"
        },
        {
          "internalType": "string",
          "name": "evidenceHash",
          "type": "string"
        },
        {
          "internalType": "string",
          "name": "category",
          "type": "string"
        },
        {
          "internalType": "enum POCSORegistry.Status",
          "name": "status",
          "type": "uint8"
        },
        {
          "internalType": "address",
          "name": "submittedBy",
          "type": "address"
        },
        {
          "internalType": "uint256",
          "name": "timestamp",
          "type": "uint256"
        },
        {
          "internalType": "string",
          "name": "notes",
          "type": "string"
        }
      ],
      "stateMutability": "view",
      "type": "function"
    },
    {
      "inputs": [
        {
          "internalType": "string",
          "name": "_caseId",
          "type": "string"
        },
        {
          "internalType": "string",
          "name": "_ipfsCID",
          "type": "string"
        },
        {
          "internalType": "uint256",
          "name": "_riskScore",
          "type": "uint256"
        },
        {
          "internalType": "string",
          "name": "_evidenceHash",
          "type": "string"
        },
        {
          "internalType": "string",
          "name": "_category",
          "type": "string"
        }
      ],
      "name": "submitReport",
      "outputs": [],
      "stateMutability": "nonpayable",
      "type": "function"
    },
    {
      "inputs": [
        {
          "internalType": "string",
          "name": "_caseId",
          "type": "string"
        },
        {
          "internalType": "enum POCSORegistry.Status",
          "name": "_newStatus",
          "type": "uint8"
        },
        {
          "internalType": "string",
          "name": "_notes",
          "type": "string"
        }
      ],
      "name": "updateStatus",
      "outputs": [],
      "stateMutability": "nonpayable",
      "type": "function"
    }
  ],
  "bytecode": "0x608060405234801561001057600080fd5b5033600260006101000a81548173ffffffffffffffffffffffffffffffffffffffff021916908373ffffffffffffffffffffffffffffffffffffffff160217905550611f81806100616000396000f3fe608060405234801561001057600080fd5b50600436106100885760003560e01c8063d10e516a1161005b578063d10e516a1461014a578063f3d3ddfa14610166578063f7d82a9a14610184578063f851a440146101a057610088565b806312e63d711461008d57806381971d55146100c4578063c942adf7146100f4578063cad9642b1461012c575b600080fd5b6100a760048036038101906100a291906112a5565b6101be565b6040516100bb9897969594939291906113fd565b60405180910390f35b6100de60048036038101906100d991906112a5565b61056b565b6040516100eb919061149e565b60405180910390f35b61010e600480360381019061010991906114e5565b610599565b60405161012399989796959493929190611553565b60405180910390f35b6101346108cc565b604051610141919061149e565b60405180910390f35b610164600480360381019061015f9190611628565b6108d8565b005b61016e610aa9565b60405161017b91906118cd565b60405180910390f35b61019e600480360381019061019991906118ef565b610e88565b005b6101a8611125565b6040516101b591906119da565b60405180910390f35b60608060006060806000806060600060018a6040516101dd9190611a31565b908152602001604051809103902054905060008103610231576040517f08c379a000000000000000000000000000000000000000000000000000000000815260040161022890611a94565b60405180910390fd5b6000806001836102419190611ae3565b8154811061025257610251611b17565b5b906000526020600020906008020190508060000181600101826002015483600301846004018560050160009054906101000a900460ff1686600601548760070187805461029e90611b75565b80601f01602080910402602001604051908101604052809291908181526020018280546102ca90611b75565b80156103175780601f106102ec57610100808354040283529160200191610317565b820191906000526020600020905b8154815290600101906020018083116102fa57829003601f168201915b5050505050975086805461032a90611b75565b80601f016020809104026020016040519081016040528092919081815260200182805461035690611b75565b80156103a35780601f10610378576101008083540402835291602001916103a3565b820191906000526020600020905b81548152906001019060200180831161038657829003601f168201915b505050505096508480546103b690611b75565b80601f01602080910402602001604051908101604052809291908181526020018280546103e290611b75565b801561042f5780601f106104045761010080835404028352916020019161042f565b820191906000526020600020905b81548152906001019060200180831161041257829003601f168201915b5050505050945083805461044290611b75565b80601f016020809104026020016040519081016040528092919081815260200182805461046e90611b75565b80156104bb5780601f10610490576101008083540402835291602001916104bb565b820191906000526020600020905b81548152906001019060200180831161049e57829003601f168201915b505050505093508080546104ce90611b75565b80601f01602080910402602001604051908101604052809291908181526020018280546104fa90611b75565b80156105475780601f1061051c57610100808354040283529160200191610547565b820191906000526020600020905b81548152906001019060200180831161052a57829003601f168201915b50505050509050995099509950995099509950995099505050919395975091939597565b6001818051602081018201805184825260208301602085012081835280955050505050506000915090505481565b600081815481106105a957600080fd5b90600052602060002090600802016000915090508060000180546105cc90611b75565b80601f01602080910402602001604051908101604052809291908181526020018280546105f890611b75565b80156106455780601f1061061a57610100808354040283529160200191610645565b820191906000526020600020905b81548152906001019060200180831161062857829003601f168201915b50505050509080600101805461065a90611b75565b80601f016020809104026020016040519081016040528092919081815260200182805461068690611b75565b80156106d35780601f106106a8576101008083540402835291602001916106d3565b820191906000526020600020905b8154815290600101906020018083116106b657829003601f168201915b5050505050908060020154908060030180546106ee90611b75565b80601f016020809104026020016040519081016040528092919081815260200182805461071a90611b75565b80156107675780601f1061073c57610100808354040283529160200191610767565b820191906000526020600020905b81548152906001019060200180831161074a57829003601f168201915b50505050509080600401805461077c90611b75565b80601f01602080910402602001604051908101604052809291908181526020018280546107a890611b75565b80156107f55780601f106107ca576101008083540402835291602001916107f5565b820191906000526020600020905b8154815290600101906020018083116107d857829003601f168201915b5050505050908060050160009054906101000a900460ff16908060050160019054906101000a900473ffffffffffffffffffffffffffffffffffffffff169080600601549080600701805461084990611b75565b80601f016020809104026020016040519081016040528092919081815260200182805461087590611b75565b80156108c25780601f10610897576101008083540402835291602001916108c2565b820191906000526020600020905b8154815290600101906020018083116108a557829003601f168201915b5050505050905089565b60008080549050905090565b600260009054906101000a900473ffffffffffffffffffffffffffffffffffffffff1673ffffffffffffffffffffffffffffffffffffffff163373ffffffffffffffffffffffffffffffffffffffff1614610968576040517f08c379a000000000000000000000000000000000000000000000000000000000815260040161095f90611bf2565b60405180910390fd5b600060018460405161097a9190611a31565b9081526020016040518091039020549050600081036109ce576040517f08c379a00000000000000000000000000000000000000000000000000000000081526004016109c590611a94565b60405180910390fd5b8260006001836109de9190611ae3565b815481106109ef576109ee611b17565b5b906000526020600020906008020160050160006101000a81548160ff02191690836005811115610a2257610a21611386565b5b0217905550816000600183610a379190611ae3565b81548110610a4857610a47611b17565b5b90600052602060002090600802016007019081610a659190611dbe565b507f547ec93472e92c64c5cb51af93286e95e7cecfcba2c38f9e9f8a8032fff5fb8e84848442604051610a9b9493929190611e90565b60405180910390a150505050565b60606000805480602002602001604051908101604052809291908181526020016000905b82821015610e7f578382906000526020600020906008020160405180610120016040529081600082018054610b0190611b75565b80601f0160208091040260200160405190810160405280929190818152602001828054610b2d90611b75565b8015610b7a5780601f10610b4f57610100808354040283529160200191610b7a565b820191906000526020600020905b815481529060010190602001808311610b5d57829003601f168201915b50505050508152602001600182018054610b9390611b75565b80601f0160208091040260200160405190810160405280929190818152602001828054610bbf90611b75565b8015610c0c5780601f10610be157610100808354040283529160200191610c0c565b820191906000526020600020905b815481529060010190602001808311610bef57829003601f168201915b5050505050815260200160028201548152602001600382018054610c2f90611b75565b80601f0160208091040260200160405190810160405280929190818152602001828054610c5b90611b75565b8015610ca85780601f10610c7d57610100808354040283529160200191610ca8565b820191906000526020600020905b815481529060010190602001808311610c8b57829003601f168201915b50505050508152602001600482018054610cc190611b75565b80601f0160208091040260200160405190810160405280929190818152602001828054610ced90611b75565b8015610d3a5780601f10610d0f57610100808354040283529160200191610d3a565b820191906000526020600020905b815481529060010190602001808311610d1d57829003601f168201915b505050505081526020016005820160009054906101000a900460ff166005811115610d6857610d67611386565b5b6005811115610d7a57610d79611386565b5b81526020016005820160019054906101000a900473ffffffffffffffffffffffffffffffffffffffff1673ffffffffffffffffffffffffffffffffffffffff1673ffffffffffffffffffffffffffffffffffffffff16815260200160068201548152602001600782018054610dee90611b75565b80601f0160208091040260200160405190810160405280929190818152602001828054610e1a90611b75565b8015610e675780601f10610e3c57610100808354040283529160200191610e67565b820191906000526020600020905b815481529060010190602001808311610e4a57829003601f168201915b50505050508152505081526020019060010190610acd565b50505050905090565b600260009054906101000a900473ffffffffffffffffffffffffffffffffffffffff1673ffffffffffffffffffffffffffffffffffffffff163373ffffffffffffffffffffffffffffffffffffffff1614610f18576040517f08c379a0000000000000000000000000000000000000000000000000000000008152600401610f0f90611bf2565b60405180910390fd5b600060405180610120016040528087815260200186815260200185815260200184815260200183815260200160006005811115610f5857610f57611386565b5b81526020013373ffffffffffffffffffffffffffffffffffffffff1681526020014281526020016040518060200160405280600081525081525090806001815401808255809150506001900390600052602060002090600802016000909190919091506000820151816000019081610fd09190611dbe565b506020820151816001019081610fe69190611dbe565b506040820151816002015560608201518160030190816110069190611dbe565b50608082015181600401908161101c9190611dbe565b5060a08201518160050160006101000a81548160ff0219169083600581111561104857611047611386565b5b021790555060c08201518160050160016101000a81548173ffffffffffffffffffffffffffffffffffffffff021916908373ffffffffffffffffffffffffffffffffffffffff16021790555060e082015181600601556101008201518160070190816110b49190611dbe565b5050506000805490506001866040516110cd9190611a31565b9081526020016040518091039020819055507f61739e95e5dd9298ec0e80fda82d36f019649213243c1d94361708872bbbfc1b8585858442604051611116959493929190611ee3565b60405180910390a15050505050565b600260009054906101000a900473ffffffffffffffffffffffffffffffffffffffff1681565b6000604051905090565b600080fd5b600080fd5b600080fd5b600080fd5b6000601f19601f8301169050919050565b7f4e487b7100000000000000000000000000000000000000000000000000000000600052604160045260246000fd5b6111b282611169565b810181811067ffffffffffffffff821117156111d1576111d061117a565b5b80604052505050565b60006111e461114b565b90506111f082826111a9565b919050565b600067ffffffffffffffff8211156112105761120f61117a565b5b61121982611169565b9050602081019050919050565b82818337600083830152505050565b6000611248611243846111f5565b6111da565b90508281526020810184848401111561126457611263611164565b5b61126f848285611226565b509392505050565b600082601f83011261128c5761128b61115f565b5b813561129c848260208601611235565b91505092915050565b6000602082840312156112bb576112ba611155565b5b600082013567ffffffffffffffff8111156112d9576112d861115a565b5b6112e584828501611277565b91505092915050565b600081519050919050565b600082825260208201905092915050565b60005b8381101561132857808201518184015260208101905061130d565b60008484015250505050565b600061133f826112ee565b61134981856112f9565b935061135981856020860161130a565b61136281611169565b840191505092915050565b6000819050919050565b6113808161136d565b82525050565b7f4e487b7100000000000000000000000000000000000000000000000000000000600052602160045260246000fd5b600681106113c6576113c5611386565b5b50565b60008190506113d7826113b5565b919050565b60006113e7826113c9565b9050919050565b6113f7816113dc565b82525050565b6000610100820190508181036000830152611418818b611334565b9050818103602083015261142c818a611334565b905061143b6040830189611377565b818103606083015261144d8188611334565b905081810360808301526114618187611334565b905061147060a08301866113ee565b61147d60c0830185611377565b81810360e083015261148f8184611334565b90509998505050505050505050565b60006020820190506114b36000830184611377565b92915050565b6114c28161136d565b81146114cd57600080fd5b50565b6000813590506114df816114b9565b92915050565b6000602082840312156114fb576114fa611155565b5b6000611509848285016114d0565b91505092915050565b600073ffffffffffffffffffffffffffffffffffffffff82169050919050565b600061153d82611512565b9050919050565b61154d81611532565b82525050565b600061012082019050818103600083015261156e818c611334565b90508181036020830152611582818b611334565b9050611591604083018a611377565b81810360608301526115a38189611334565b905081810360808301526115b78188611334565b90506115c660a08301876113ee565b6115d360c0830186611544565b6115e060e0830185611377565b8181036101008301526115f38184611334565b90509a9950505050505050505050565b6006811061161057600080fd5b50565b60008135905061162281611603565b92915050565b60008060006060848603121561164157611640611155565b5b600084013567ffffffffffffffff81111561165f5761165e61115a565b5b61166b86828701611277565b935050602061167c86828701611613565b925050604084013567ffffffffffffffff81111561169d5761169c61115a565b5b6116a986828701611277565b9150509250925092565b600081519050919050565b600082825260208201905092915050565b6000819050602082019050919050565b600082825260208201905092915050565b60006116fb826112ee565b61170581856116df565b935061171581856020860161130a565b61171e81611169565b840191505092915050565b6117328161136d565b82525050565b611741816113dc565b82525050565b61175081611532565b82525050565b600061012083016000830151848203600086015261177482826116f0565b9150506020830151848203602086015261178e82826116f0565b91505060408301516117a36040860182611729565b50606083015184820360608601526117bb82826116f0565b915050608083015184820360808601526117d582826116f0565b91505060a08301516117ea60a0860182611738565b5060c08301516117fd60c0860182611747565b5060e083015161181060e0860182611729565b5061010083015184820361010086015261182a82826116f0565b9150508091505092915050565b60006118438383611756565b905092915050565b6000602082019050919050565b6000611863826116b3565b61186d81856116be565b93508360208202850161187f856116cf565b8060005b858110156118bb578484038952815161189c8582611837565b94506118a78361184b565b925060208a01995050600181019050611883565b50829750879550505050505092915050565b600060208201905081810360008301526118e78184611858565b905092915050565b600080600080600060a0868803121561190b5761190a611155565b5b600086013567ffffffffffffffff8111156119295761192861115a565b5b61193588828901611277565b955050602086013567ffffffffffffffff8111156119565761195561115a565b5b61196288828901611277565b9450506040611973888289016114d0565b935050606086013567ffffffffffffffff8111156119945761199361115a565b5b6119a088828901611277565b925050608086013567ffffffffffffffff8111156119c1576119c061115a565b5b6119cd88828901611277565b9150509295509295909350565b60006020820190506119ef6000830184611544565b92915050565b600081905092915050565b6000611a0b826112ee565b611a1581856119f5565b9350611a2581856020860161130a565b80840191505092915050565b6000611a3d8284611a00565b915081905092915050565b7f43617365206e6f7420666f756e64000000000000000000000000000000000000600082015250565b6000611a7e600e836112f9565b9150611a8982611a48565b602082019050919050565b60006020820190508181036000830152611aad81611a71565b9050919050565b7f4e487b7100000000000000000000000000000000000000000000000000000000600052601160045260246000fd5b6000611aee8261136d565b9150611af98361136d565b9250828203905081811115611b1157611b10611ab4565b5b92915050565b7f4e487b7100000000000000000000000000000000000000000000000000000000600052603260045260246000fd5b7f4e487b7100000000000000000000000000000000000000000000000000000000600052602260045260246000fd5b60006002820490506001821680611b8d57607f821691505b602082108103611ba057611b9f611b46565b5b50919050565b7f4e6f7420617574686f72697a6564000000000000000000000000000000000000600082015250565b6000611bdc600e836112f9565b9150611be782611ba6565b602082019050919050565b60006020820190508181036000830152611c0b81611bcf565b9050919050565b60008190508160005260206000209050919050565b60006020601f8301049050919050565b600082821b905092915050565b600060088302611c747fffffffffffffffffffffffffffffffffffffffffffffffffffffffffffffffff82611c37565b611c7e8683611c37565b95508019841693508086168417925050509392505050565b6000819050919050565b6000611cbb611cb6611cb18461136d565b611c96565b61136d565b9050919050565b6000819050919050565b611cd583611ca0565b611ce9611ce182611cc2565b848454611c44565b825550505050565b600090565b611cfe611cf1565b611d09818484611ccc565b505050565b5b81811015611d2d57611d22600082611cf6565b600181019050611d0f565b5050565b601f821115611d7257611d4381611c12565b611d4c84611c27565b81016020851015611d5b578190505b611d6f611d6785611c27565b830182611d0e565b50505b505050565b600082821c905092915050565b6000611d9560001984600802611d77565b1980831691505092915050565b6000611dae8383611d84565b9150826002028217905092915050565b611dc7826112ee565b67ffffffffffffffff811115611de057611ddf61117a565b5b611dea8254611b75565b611df5828285611d31565b600060209050601f831160018114611e285760008415611e16578287015190505b611e208582611da2565b865550611e88565b601f198416611e3686611c12565b60005b82811015611e5e57848901518255600182019150602085019450602081019050611e39565b86831015611e7b5784890151611e77601f891682611d84565b8355505b6001600288020188555050505b505050505050565b60006080820190508181036000830152611eaa8187611334565b9050611eb960208301866113ee565b8181036040830152611ecb8185611334565b9050611eda6060830184611377565b95945050505050565b600060a0820190508181036000830152611efd8188611334565b90508181036020830152611f118187611334565b9050611f206040830186611377565b8181036060830152611f328185611334565b9050611f416080830184611377565b969550505050505056fea2646970667358221220711b1147b5db5951f1470421eed0f36c5619f1ccf5204dacdd6eb9523188a64764736f6c63430008140033",
  "linkReferences": {},
  "deployedLinkReferences": {}
}