{"Contracts/POCSORegistry.sol":{"POCSORegistry":{"abi":[{"inputs":[],"stateMutability":"nonpayable","type":"constructor"},{"anonymous":false,"inputs":[{"indexed":false,"internalType":"string","name":"caseId","type":"string"},{"indexed":false,"internalType":"string","name":"ipfsCID","type":"string"},{"indexed":false,"internalType":"uint256","name":"riskScore","type":"uint256"},{"indexed":false,"internalType":"string","name":"category","type":"string"},{"indexed":false,"internalType":"uint256","name":"timestamp","type":"uint256"}],"name":"ReportSubmitted","type":"event"},{"anonymous":false,"inputs":[{"indexed":false,"internalType":"string","name":"caseId","type":"string"},{"indexed":false,"internalType":"enum POCSORegistry.Status","name":"newStatus","type":"uint8"},{"indexed":false,"internalType":"string","name":"notes","type":"string"},{"indexed":false,"internalType":"uint256","name":"timestamp","type":"uint256"}],"name":"StatusUpdated","type":"event"},{"inputs":[],"name":"admin","outputs":[{"internalType":"address","name":"","type":"address"}],"stateMutability":"view","type":"function"},{"inputs":[{"internalType":"string","name":"","type":"string"}],"name":"caseIdToIndex","outputs":[{"internalType":"uint256","name":"","type":"uint256"}],"stateMutability":"view","type":"function"},{"inputs":[],"name":"getAllReports","outputs":[{"components":[{"internalType":"string","name":"caseId","type":"string"},{"internalType":"string","name":"ipfsCID","type":"string"},{"internalType":"uint256","name":"riskScore","type":"uint256"},{"internalType":"string","name":"evidenceHash","type":"string"},{"internalType":"string","name":"category","type":"string"},{"internalType":"enum POCSORegistry.Status","name":"status","type":"uint8"},{"internalType":"address","name":"submittedBy","type":"address"},{"internalType":"uint256","name":"timestamp","type":"uint256"},{"internalType":"string","name":"notes","type":"string"}],"internalType":"struct POCSORegistry.Report[]","name":"","type":"tuple[]"}],"stateMutability":"view","type":"function"},{"inputs":[{"internalType":"string","name":"_caseId","type":"string"}],"name":"getReport","outputs":[{"internalType":"string","name":"caseId","type":"string"},{"internalType":"string","name":"ipfsCID","type":"string"},{"internalType":"uint256","name":"riskScore","type":"uint256"},{"internalType":"string","name":"evidenceHash","type":"string"},{"internalType":"string","name":"category","type":"string"},{"internalType":"enum POCSORegistry.Status","name":"status","type":"uint8"},{"internalType":"uint256","name":"timestamp","type":"uint256"},{"internalType":"string","name":"notes","type":"string"}],"stateMutability":"view","type":"function"},{"inputs":[],"name":"getReportCount","outputs":[{"internalType":"uint256","name":"","type":"uint256"}],"stateMutability":"view","type":"function"},{"inputs":[{"internalType":"uint256","name":"","type":"uint256"}],"name":"reports","outputs":[{"internalType":"string","name":"caseId","type":"string"},{"internalType":"string","name":"ipfsCID","type":"string"},{"internalType":"uint256","name":"riskScore","type":"uint256"},{"internalType":"string","name":"evidenceHash","type":"string"},{"internalType":"string","name":"category","type":"string"},{"internalType":"enum POCSORegistry.Status","name":"status","type":"uint8"},{"internalType":"address","name":"submittedBy","type":"address"},{"internalType":"uint256","name":"timestamp","type":"uint256"},{"internalType":"string","name":"notes","type":"string"}],"stateMutability":"view","type":"function"},{"inputs":[{"internalType":"string","name":"_caseId","type":"string"},{"internalType":"string","name":"_ipfsCID","type":"string"},{"internalType":"uint256","name":"_riskScore","type":"uint256"},{"internalType":"string","name":"_evidenceHash","type":"string"},{"internalType":"string","name":"_category","type":"string"}],"name":"submitReport","outputs":[],"stateMutability":"nonpayable","type":"function"},{"inputs":[{"internalType":"string","name":"_caseId","type":"string"},{"internalType":"enum POCSORegistry.Status","name":"_newStatus","type":"uint8"},{"internalType":"string","name":"_notes","type":"string"}],"name":"updateStatus","outputs":[],"stateMutability":"nonpayable","type":"function"}],"evm":{"bytecode":{"linkReferences":{},"object":"608060405234801561001057600080fd5b5033600260006101000a81548173ffffffffffffffffffffffffffffffffffffffff021916908373ffffffffffffffffffffffffffffffffffffffff160217905550611f81806100616000396000f3fe608060405234801561001057600080fd5b50600436106100885760003560e01c8063d10e516a1161005b578063d10e516a1461014a578063f3d3ddfa14610166578063f7d82a9a14610184578063f851a440146101a057610088565b806312e63d711461008d57806381971d55146100c4578063c942adf7146100f4578063cad9642b1461012c575b600080fd5b6100a760048036038101906100a291906112a5565b6101be565b6040516100bb9897969594939291906113fd565b60405180910390f35b6100de60048036038101906100d991906112a5565b61056b565b6040516100eb919061149e565b60405180910390f35b61010e600480360381019061010991906114e5565b610599565b60405161012399989796959493929190611553565b60405180910390f35b6101346108cc565b604051610141919061149e565b60405180910390f35b610164600480360381019061015f9190611628565b6108d8565b005b61016e610aa9565b60405161017b91906118cd565b60405180910390f35b61019e600480360381019061019991906118ef565b610e88565b005b6101a8611125565b6040516101b591906119da565b60405180910390f35b60608060006060806000806060600060018a6040516101dd9190611a31565b908152602001604051809103902054905060008103610231576040517f08c379a000000000000000000000000000000000000000000000000000000000815260040161022890611a94565b60405180910390fd5b6000806001836102419190611ae3565b8154811061025257610251611b17565b5b906000526020600020906008020190508060000181600101826002015483600301846004018560050160009054906101000a900460ff1686600601548760070187805461029e90611b75565b80601f01602080910402602001604051908101604052809291908181526020018280546102ca90611b75565b80156103175780601f106102ec57610100808354040283529160200191610317565b820191906000526020600020905b8154815290600101906020018083116102fa57829003601f168201915b5050505050975086805461032a90611b75565b80601f016020809104026020016040519081016040528092919081815260200182805461035690611b75565b80156103a35780601f10610378576101008083540402835291602001916103a3565b820191906000526020600020905b81548152906001019060200180831161038657829003601f168201915b505050505096508480546103b690611b75565b80601f01602080910402602001604051908101604052809291908181526020018280546103e290611b75565b801561042f5780601f106104045761010080835404028352916020019161042f565b820191906000526020600020905b81548152906001019060200180831161041257829003601f168201915b5050505050945083805461044290611b75565b80601f016020809104026020016040519081016040528092919081815260200182805461046e90611b75565b80156104bb5780601f10610490576101008083540402835291602001916104bb565b820191906000526020600020905b81548152906001019060200180831161049e57829003601f168201915b505050505093508080546104ce90611b75565b80601f01602080910402602001604051908101604052809291908181526020018280546104fa90611b75565b80156105475780601f1061051c57610100808354040283529160200191610547565b820191906000526020600020905b81548152906001019060200180831161052a57829003601f168201915b50505050509050995099509950995099509950995099505050919395975091939597565b6001818051602081018201805184825260208301602085012081835280955050505050506000915090505481565b600081815481106105a957600080fd5b90600052602060002090600802016000915090508060000180546105cc90611b75565b80601f01602080910402602001604051908101604052809291908181526020018280546105f890611b75565b80156106455780601f1061061a57610100808354040283529160200191610645565b820191906000526020600020905b81548152906001019060200180831161062857829003601f168201915b50505050509080600101805461065a90611b75565b80601f016020809104026020016040519081016040528092919081815260200182805461068690611b75565b80156106d35780601f106106a8576101008083540402835291602001916106d3565b820191906000526020600020905b8154815290600101906020018083116106b657829003601f168201915b5050505050908060020154908060030180546106ee90611b75565b80601f016020809104026020016040519081016040528092919081815260200182805461071a90611b75565b80156107675780601f1061073c57610100808354040283529160200191610767565b820191906000526020600020905b81548152906001019060200180831161074a57829003601f168201915b50505050509080600401805461077c90611b75565b80601f01602080910402602001604051908101604052809291908181526020018280546107a890611b75565b80156107f55780601f106107ca576101008083540402835291602001916107f5565b820191906000526020600020905b8154815290600101906020018083116107d857829003601f168201915b5050505050908060050160009054906101000a900460ff16908060050160019054906101000a900473ffffffffffffffffffffffffffffffffffffffff169080600601549080600701805461084990611b75565b80601f016020809104026020016040519081016040528092919081815260200182805461087590611b75565b80156108c25780601f10610897576101008083540402835291602001916108c2565b820191906000526020600020905b8154815290600101906020018083116108a557829003601f168201915b5050505050905089565b60008080549050905090565b600260009054906101000a900473ffffffffffffffffffffffffffffffffffffffff1673ffffffffffffffffffffffffffffffffffffffff163373ffffffffffffffffffffffffffffffffffffffff1614610968576040517f08c379a000000000000000000000000000000000000000000000000000000000815260040161095f90611bf2565b60405180910390fd5b600060018460405161097a9190611a31565b9081526020016040518091039020549050600081036109ce576040517f08c379a00000000000000000000000000000000000000000000000000000000081526004016109c590611a94565b60405180910390fd5b8260006001836109de9190611ae3565b815481106109ef576109ee611b17565b5b906000526020600020906008020160050160006101000a81548160ff02191690836005811115610a2257610a21611386565b5b0217905550816000600183610a379190611ae3565b81548110610a4857610a47611b17565b5b90600052602060002090600802016007019081610a659190611dbe565b507f547ec93472e92c64c5cb51af93286e95e7cecfcba2c38f9e9f8a8032fff5fb8e84848442604051610a9b9493929190611e90565b60405180910390a150505050565b60606000805480602002602001604051908101604052809291908181526020016000905b82821015610e7f578382906000526020600020906008020160405180610120016040529081600082018054610b0190611b75565b80601f0160208091040260200160405190810160405280929190818152602001828054610b2d90611b75565b8015610b7a5780601f10610b4f57610100808354040283529160200191610b7a565b820191906000526020600020905b815481529060010190602001808311610b5d57829003601f168201915b50505050508152602001600182018054610b9390611b75565b80601f0160208091040260200160405190810160405280929190818152602001828054610bbf90611b75565b8015610c0c5780601f10610be157610100808354040283529160200191610c0c565b820191906000526020600020905b815481529060010190602001808311610bef57829003601f168201915b5050505050815260200160028201548152602001600382018054610c2f90611b75565b80601f0160208091040260200160405190810160405280929190818152602001828054610c5b90611b75565b8015610ca85780601f10610c7d57610100808354040283529160200191610ca8565b820191906000526020600020905b815481529060010190602001808311610c8b57829003601f168201915b50505050508152602001600482018054610cc190611b75565b80601f0160208091040260200160405190810160405280929190818152602001828054610ced90611b75565b8015610d3a5780601f10610d0f57610100808354040283529160200191610d3a565b820191906000526020600020905b815481529060010190602001808311610d1d57829003601f168201915b505050505081526020016005820160009054906101000a900460ff166005811115610d6857610d67611386565b5b6005811115610d7a57610d79611386565b5b81526020016005820160019054906101000a900473ffffffffffffffffffffffffffffffffffffffff1673ffffffffffffffffffffffffffffffffffffffff1673ffffffffffffffffffffffffffffffffffffffff16815260200160068201548152602001600782018054610dee90611b75565b80601f0160208091040260200160405190810160405280929190818152602001828054610e1a90611b75565b8015610e675780601f10610e3c57610100808354040283529160200191610e67565b820191906000526020600020905b815481529060010190602001808311610e4a57829003601f168201915b50505050508152505081526020019060010190610acd565b50505050905090565b600260009054906101000a900473ffffffffffffffffffffffffffffffffffffffff1673ffffffffffffffffffffffffffffffffffffffff163373ffffffffffffffffffffffffffffffffffffffff1614610f18576040517f08c379a0000000000000000000000000000000000000000000000000000000008152600401610f0f90611bf2565b60405180910390fd5b600060405180610120016040528087815260200186815260200185815260200184815260200183815260200160006005811115610f5857610f57611386565b5b81526020013373ffffffffffffffffffffffffffffffffffffffff1681526020014281526020016040518060200160405280600081525081525090806001815401808255809150506001900390600052602060002090600802016000909190919091506000820151816000019081610fd09190611dbe565b506020820151816001019081610fe69190611dbe565b506040820151816002015560608201518160030190816110069190611dbe565b50608082015181600401908161101c9190611dbe565b5060a08201518160050160006101000a81548160ff0219169083600581111561104857611047611386565b5b021790555060c08201518160050160016101000a81548173ffffffffffffffffffffffffffffffffffffffff021916908373ffffffffffffffffffffffffffffffffffffffff16021790555060e082015181600601556101008201518160070190816110b49190611dbe565b5050506000805490506001866040516110cd9190611a31565b9081526020016040518091039020819055507f61739e95e5dd9298ec0e80fda82d36f019649213243c1d94361708872bbbfc1b8585858442604051611116959493929190611ee3565b60405180910390a15050505050565b600260009054906101000a900473ffffffffffffffffffffffffffffffffffffffff1681565b6000604051905090565b600080fd5b600080fd5b600080fd5b600080fd5b6000601f19601f8301169050919050565b7f4e487b7100000000000000000000000000000000000000000000000000000000600052604160045260246000fd5b6111b282611169565b810181811067ffffffffffffffff821117156111d1576111d061117a565b5b80604052505050565b60006111e461114b565b90506111f082826111a9565b919050565b600067ffffffffffffffff8211156112105761120f61117a565b5b61121982611169565b9050602081019050919050565b82818337600083830152505050565b6000611248611243846111f5565b6111da565b90508281526020810184848401111561126457611263611164565b5b61126f848285611226565b509392505050565b600082601f83011261128c5761128b61115f565b5b813561129c848260208601611235565b91505092915050565b6000602082840312156112bb576112ba611155565b5b600082013567ffffffffffffffff8111156112d9576112d861115a565b5b6112e584828501611277565b91505092915050565b600081519050919050565b600082825260208201905092915050565b60005b8381101561132857808201518184015260208101905061130d565b60008484015250505050565b600061133f826112ee565b61134981856112f9565b935061135981856020860161130a565b61136281611169565b840191505092915050565b6000819050919050565b6113808161136d565b82525050565b7f4e487b7100000000000000000000000000000000000000000000000000000000600052602160045260246000fd5b600681106113c6576113c5611386565b5b50565b60008190506113d7826113b5565b919050565b60006113e7826113c9565b9050919050565b6113f7816113dc565b82525050565b6000610100820190508181036000830152611418818b611334565b9050818103602083015261142c818a611334565b905061143b6040830189611377565b818103606083015261144d8188611334565b905081810360808301526114618187611334565b905061147060a08301866113ee565b61147d60c0830185611377565b81810360e083015261148f8184611334565b90509998505050505050505050565b60006020820190506114b36000830184611377565b92915050565b6114c28161136d565b81146114cd57600080fd5b50565b6000813590506114df816114b9565b92915050565b6000602082840312156114fb576114fa611155565b5b6000611509848285016114d0565b91505092915050565b600073ffffffffffffffffffffffffffffffffffffffff82169050919050565b600061153d82611512565b9050919050565b61154d81611532565b82525050565b600061012082019050818103600083015261156e818c611334565b90508181036020830152611582818b611334565b9050611591604083018a611377565b81810360608301526115a38189611334565b905081810360808301526115b78188611334565b90506115c660a08301876113ee565b6115d360c0830186611544565b6115e060e0830185611377565b8181036101008301526115f38184611334565b90509a9950505050505050505050565b6006811061161057600080fd5b50565b60008135905061162281611603565b92915050565b60008060006060848603121561164157611640611155565b5b600084013567ffffffffffffffff81111561165f5761165e61115a565b5b61166b86828701611277565b935050602061167c86828701611613565b925050604084013567ffffffffffffffff81111561169d5761169c61115a565b5b6116a986828701611277565b9150509250925092565b600081519050919050565b600082825260208201905092915050565b6000819050602082019050919050565b600082825260208201905092915050565b60006116fb826112ee565b61170581856116df565b935061171581856020860161130a565b61171e81611169565b840191505092915050565b6117328161136d565b82525050565b611741816113dc565b82525050565b61175081611532565b82525050565b600061012083016000830151848203600086015261177482826116f0565b9150506020830151848203602086015261178e82826116f0565b91505060408301516117a36040860182611729565b50606083015184820360608601526117bb82826116f0565b915050608083015184820360808601526117d582826116f0565b91505060a08301516117ea60a0860182611738565b5060c08301516117fd60c0860182611747565b5060e083015161181060e0860182611729565b5061010083015184820361010086015261182a82826116f0565b9150508091505092915050565b60006118438383611756565b905092915050565b6000602082019050919050565b6000611863826116b3565b61186d81856116be565b93508360208202850161187f856116cf565b8060005b858110156118bb578484038952815161189c8582611837565b94506118a78361184b565b925060208a01995050600181019050611883565b50829750879550505050505092915050565b600060208201905081810360008301526118e78184611858565b905092915050565b600080600080600060a0868803121561190b5761190a611155565b5b600086013567ffffffffffffffff8111156119295761192861115a565b5b61193588828901611277565b955050602086013567ffffffffffffffff8111156119565761195561115a565b5b61196288828901611277565b9450506040611973888289016114d0565b935050606086013567ffffffffffffffff8111156119945761199361115a565b5b6119a088828901611277565b925050608086013567ffffffffffffffff8111156119c1576119c061115a565b5b6119cd88828901611277565b9150509295509295909350565b60006020820190506119ef6000830184611544565b92915050565b600081905092915050565b6000611a0b826112ee565b611a1581856119f5565b9350611a2581856020860161130a565b80840191505092915050565b6000611a3d8284611a00565b915081905092915050565b7f43617365206e6f7420666f756e64000000000000000000000000000000000000600082015250565b6000611a7e600e836112f9565b9150611a8982611a48565b602082019050919050565b60006020820190508181036000830152611aad81611a71565b9050919050565b7f4e487b7100000000000000000000000000000000000000000000000000000000600052601160045260246000fd5b6000611aee8261136d565b9150611af98361136d565b9250828203905081811115611b1157611b10611ab4565b5b92915050565b7f4e487b7100000000000000000000000000000000000000000000000000000000600052603260045260246000fd5b7f4e487b7100000000000000000000000000000000000000000000000000000000600052602260045260246000fd5b60006002820490506001821680611b8d57607f821691505b602082108103611ba057611b9f611b46565b5b50919050565b7f4e6f7420617574686f72697a6564000000000000000000000000000000000000600082015250565b6000611bdc600e836112f9565b9150611be782611ba6565b602082019050919050565b60006020820190508181036000830152611c0b81611bcf565b9050919050565b60008190508160005260206000209050919050565b60006020601f8301049050919050565b600082821b905092915050565b600060088302611c747fffffffffffffffffffffffffffffffffffffffffffffffffffffffffffffffff82611c37565b611c7e8683611c37565b95508019841693508086168417925050509392505050565b6000819050919050565b6000611cbb611cb6611cb18461136d565b611c96565b61136d565b9050919050565b6000819050919050565b611cd583611ca0565b611ce9611ce182611cc2565b848454611c44565b825550505050565b600090565b611cfe611cf1565b611d09818484611ccc565b505050565b5b81811015611d2d57611d22600082611cf6565b600181019050611d0f565b5050565b601f821115611d7257611d4381611c12565b611d4c84611c27565b81016020851015611d5b578190505b611d6f611d6785611c27565b830182611d0e565b50505b505050565b600082821c905092915050565b6000611d9560001984600802611d77565b1980831691505092915050565b6000611dae8383611d84565b9150826002028217905092915050565b611dc7826112ee565b67ffffffffffffffff811115611de057611ddf61117a565b5b611dea8254611b75565b611df5828285611d31565b600060209050601f831160018114611e285760008415611e16578287015190505b611e208582611da2565b865550611e88565b601f198416611e3686611c12565b60005b82811015611e5e57848901518255600182019150602085019450602081019050611e39565b86831015611e7b5784890151611e77601f891682611d84565b8355505b6001600288020188555050505b505050505050565b60006080820190508181036000830152611eaa8187611334565b9050611eb960208301866113ee565b8181036040830152611ecb8185611334565b9050611eda6060830184611377565b95945050505050565b600060a0820190508181036000830152611efd8188611334565b90508181036020830152611f118187611334565b9050611f206040830186611377565b8181036060830152611f328185611334565b9050611f416080830184611377565b969550505050505056fea2646970667358221220711b1147b5db5951f1470421eed0f36c5619f1ccf5204dacdd6eb9523188a64764736f6c63430008140033","opcodes":"PUSH1 0x80 PUSH1 0x40 MSTORE CALLVALUE DUP1 ISZERO PUSH2 0x10 JUMPI PUSH1 0x0 DUP1 REVERT JUMPDEST POP CALLER PUSH1 0x2 PUSH1 0x0 PUSH2 0x100 EXP DUP2 SLOAD DUP2 PUSH20 0xFFFFFFFFFFFFFFFFFFFFFFFFFFFFFFFFFFFFFFFF MUL NOT AND SWAP1 DUP4 PUSH20 0xFFFFFFFFFFFFFFFFFFFFFFFFFFFFFFFFFFFFFFFF AND MUL OR SWAP1 SSTORE POP PUSH2 0x1F81 DUP1 PUSH2 0x61 PUSH1 0x0 CODECOPY PUSH1 0x0 RETURN INVALID PUSH1 0x80 PUSH1 0x40 MSTORE CALLVALUE DUP1 ISZERO PUSH2 0x10 JUMPI PUSH1 0x0 DUP1 REVERT JUMPDEST POP PUSH1 0x4 CALLDATASIZE LT PUSH2 0x88 JUMPI PUSH1 0x0 CALLDATALOAD PUSH1 0xE0 SHR DUP1 PUSH4 0xD10E516A GT PUSH2 0x5B JUMPI DUP1 PUSH4 0xD10E516A EQ PUSH2 0x14A JUMPI DUP1 PUSH4 0xF3D3DDFA EQ PUSH2 0x166 JUMPI DUP1 PUSH4 0xF7D82A9A EQ PUSH2 0x184 JUMPI DUP1 PUSH4 0xF851A440 EQ PUSH2 0x1A0 JUMPI PUSH2 0x88 JUMP JUMPDEST DUP1 PUSH4 0x12E63D71 EQ PUSH2 0x8D JUMPI DUP1 PUSH4 0x81971D55 EQ PUSH2 0xC4 JUMPI DUP1 PUSH4 0xC942ADF7 EQ PUSH2 0xF4 JUMPI DUP1 PUSH4 0xCAD9642B EQ PUSH2 0x12C JUMPI JUMPDEST PUSH1 0x0 DUP1 REVERT JUMPDEST PUSH2 0xA7 PUSH1 0x4 DUP1 CALLDATASIZE SUB DUP2 ADD SWAP1 PUSH2 0xA2 SWAP2 SWAP1 PUSH2 0x12A5 JUMP JUMPDEST PUSH2 0x1BE JUMP JUMPDEST PUSH1 0x40 MLOAD PUSH2 0xBB SWAP9 SWAP8 SWAP7 SWAP6 SWAP5 SWAP4 SWAP3 SWAP2 SWAP1 PUSH2 0x13FD JUMP JUMPDEST PUSH1 0x40 MLOAD DUP1 SWAP2 SUB SWAP1 RETURN JUMPDEST PUSH2 0xDE PUSH1 0x4 DUP1 CALLDATASIZE SUB DUP2 ADD SWAP1 PUSH2 0xD9 SWAP2 SWAP1 PUSH2 0x12A5 JUMP JUMPDEST PUSH2 0x56B JUMP JUMPDEST PUSH1 0x40 MLOAD PUSH2 0xEB SWAP2 SWAP1 PUSH2 0x149E JUMP JUMPDEST PUSH1 0x40 MLOAD DUP1 SWAP2 SUB SWAP1 RETURN JUMPDEST PUSH2 0x10E PUSH1 0x4 DUP1 CALLDATASIZE SUB DUP2 ADD SWAP1 PUSH2 0x109 SWAP2 SWAP1 PUSH2 0x14E5 JUMP JUMPDEST PUSH2 0x599 JUMP JUMPDEST PUSH1 0x40 MLOAD PUSH2 0x123 SWAP10 SWAP9 SWAP8 SWAP7 SWAP6 SWAP5 SWAP4 SWAP3 SWAP2 SWAP1 PUSH2 0x1553 JUMP JUMPDEST PUSH1 0x40 MLOAD DUP1 SWAP2 SUB SWAP1 RETURN JUMPDEST PUSH2 0x134 PUSH2 0x8CC JUMP JUMPDEST PUSH1 0x40 MLOAD PUSH2 0x141 SWAP2 SWAP1 PUSH2 0x149E JUMP JUMPDEST PUSH1 0x40 MLOAD DUP1 SWAP2 SUB SWAP1 RETURN JUMPDEST PUSH2 0x164 PUSH1 0x4 DUP1 CALLDATASIZE SUB DUP2 ADD SWAP1 PUSH2 0x15F SWAP2 SWAP1 PUSH2 0x1628 JUMP JUMPDEST PUSH2 0x8D8 JUMP JUMPDEST STOP JUMPDEST PUSH2 0x16E PUSH2 0xAA9 JUMP JUMPDEST PUSH1 0x40 MLOAD PUSH2 0x17B SWAP2 SWAP1 PUSH2 0x18CD JUMP JUMPDEST PUSH1 0x40 MLOAD DUP1 SWAP2 SUB SWAP1 RETURN JUMPDEST PUSH2 0x19E PUSH1 0x4 DUP1 CALLDATASIZE SUB DUP2 ADD SWAP1 PUSH2 0x199 SWAP2 SWAP1 PUSH2 0x18EF JUMP JUMPDEST PUSH2 0xE88 JUMP JUMPDEST STOP JUMPDEST PUSH2 0x1A8 PUSH2 0x1125 JUMP JUMPDEST PUSH1 0x40 MLOAD PUSH2 0x1B5 SWAP2 SWAP1 PUSH2 0x19DA JUMP JUMPDEST PUSH1 0x40 MLOAD DUP1 SWAP2 SUB SWAP1 RETURN JUMPDEST PUSH1 0x60 DUP1 PUSH1 0x0 PUSH1 0x60 DUP1 PUSH1 0x0 DUP1 PUSH1 0x60 PUSH1 0x0 PUSH1 0x1 DUP11 PUSH1 0x40 MLOAD PUSH2 0x1DD SWAP2 SWAP1 PUSH2 0x1A31 JUMP JUMPDEST SWAP1 DUP2 MSTORE PUSH1 0x20 ADD PUSH1 0x40 MLOAD DUP1 SWAP2 SUB SWAP1 KECCAK256 SLOAD SWAP1 POP PUSH1 0x0 DUP2 SUB PUSH2 0x231 JUMPI PUSH1 0x40 MLOAD PUSH32 0x8C379A000000000000000000000000000000000000000000000000000000000 DUP2 MSTORE PUSH1 0x4 ADD PUSH2 0x228 SWAP1 PUSH2 0x1A94 JUMP JUMPDEST PUSH1 0x40 MLOAD DUP1 SWAP2 SUB SWAP1 REVERT JUMPDEST PUSH1 0x0 DUP1 PUSH1 0x1 DUP4 PUSH2 0x241 SWAP2 SWAP1 PUSH2 0x1AE3 JUMP JUMPDEST DUP2 SLOAD DUP2 LT PUSH2 0x252 JUMPI PUSH2 0x251 PUSH2 0x1B17 JUMP JUMPDEST JUMPDEST SWAP1 PUSH1 0x0 MSTORE PUSH1 0x20 PUSH1 0x0 KECCAK256 SWAP1 PUSH1 0x8 MUL ADD SWAP1 POP DUP1 PUSH1 0x0 ADD DUP2 PUSH1 0x1 ADD DUP3 PUSH1 0x2 ADD SLOAD DUP4 PUSH1 0x3 ADD DUP5 PUSH1 0x4 ADD DUP6 PUSH1 0x5 ADD PUSH1 0x0 SWAP1 SLOAD SWAP1 PUSH2 0x100 EXP SWAP1 DIV PUSH1 0xFF AND DUP7 PUSH1 0x6 ADD SLOAD DUP8 PUSH1 0x7 ADD DUP8 DUP1 SLOAD PUSH2 0x29E SWAP1 PUSH2 0x1B75 JUMP JUMPDEST DUP1 PUSH1 0x1F ADD PUSH1 0x20 DUP1 SWAP2 DIV MUL PUSH1 0x20 ADD PUSH1 0x40 MLOAD SWAP1 DUP2 ADD PUSH1 0x40 MSTORE DUP1 SWAP3 SWAP2 SWAP1 DUP2 DUP2 MSTORE PUSH1 0x20 ADD DUP3 DUP1 SLOAD PUSH2 0x2CA SWAP1 PUSH2 0x1B75 JUMP JUMPDEST DUP1 ISZERO PUSH2 0x317 JUMPI DUP1 PUSH1 0x1F LT PUSH2 0x2EC JUMPI PUSH2 0x100 DUP1 DUP4 SLOAD DIV MUL DUP4 MSTORE SWAP2 PUSH1 0x20 ADD SWAP2 PUSH2 0x317 JUMP JUMPDEST DUP3 ADD SWAP2 SWAP1 PUSH1 0x0 MSTORE PUSH1 0x20 PUSH1 0x0 KECCAK256 SWAP1 JUMPDEST DUP2 SLOAD DUP2 MSTORE SWAP1 PUSH1 0x1 ADD SWAP1 PUSH1 0x20 ADD DUP1 DUP4 GT PUSH2 0x2FA JUMPI DUP3 SWAP1 SUB PUSH1 0x1F AND DUP3 ADD SWAP2 JUMPDEST POP POP POP POP POP SWAP8 POP DUP7 DUP1 SLOAD PUSH2 0x32A SWAP1 PUSH2 0x1B75 JUMP JUMPDEST DUP1 PUSH1 0x1F ADD PUSH1 0x20 DUP1 SWAP2 DIV MUL PUSH1 0x20 ADD PUSH1 0x40 MLOAD SWAP1 DUP2 ADD PUSH1 0x40 MSTORE DUP1 SWAP3 SWAP2 SWAP1 DUP2 DUP2 MSTORE PUSH1 0x20 ADD DUP3 DUP1 SLOAD PUSH2 0x356 SWAP1 PUSH2 0x1B75 JUMP JUMPDEST DUP1 ISZERO PUSH2 0x3A3 JUMPI DUP1 PUSH1 0x1F LT PUSH2 0x378 JUMPI PUSH2 0x100 DUP1 DUP4 SLOAD DIV MUL DUP4 MSTORE SWAP2 PUSH1 0x20 ADD SWAP2 PUSH2 0x3A3 JUMP JUMPDEST DUP3 ADD SWAP2 SWAP1 PUSH1 0x0 MSTORE PUSH1 0x20 PUSH1 0x0 KECCAK256 SWAP1 JUMPDEST DUP2 SLOAD DUP2 MSTORE SWAP1 PUSH1 0x1 ADD SWAP1 PUSH1 0x20 ADD DUP1 DUP4 GT PUSH2 0x386 JUMPI DUP3 SWAP1 SUB PUSH1 0x1F AND DUP3 ADD SWAP2 JUMPDEST POP POP POP POP POP SWAP7 POP DUP5 DUP1 SLOAD PUSH2 0x3B6 SWAP1 PUSH2 0x1B75 JUMP JUMPDEST DUP1 PUSH1 0x1F ADD PUSH1 0x20 DUP1 SWAP2 DIV MUL PUSH1 0x20 ADD PUSH1 0x40 MLOAD SWAP1 DUP2 ADD PUSH1 0x40 MSTORE DUP1 SWAP3 SWAP2 SWAP1 DUP2 DUP2 MSTORE PUSH1 0x20 ADD DUP3 DUP1 SLOAD PUSH2 0x3E2 SWAP1 PUSH2 0x1B75 JUMP JUMPDEST DUP1 ISZERO PUSH2 0x42F JUMPI DUP1 PUSH1 0x1F LT PUSH2 0x404 JUMPI PUSH2 0x100 DUP1 DUP4 SLOAD DIV MUL DUP4 MSTORE SWAP2 PUSH1 0x20 ADD SWAP2 PUSH2 0x42F JUMP JUMPDEST DUP3 ADD SWAP2 SWAP1 PUSH1 0x0 MSTORE PUSH1 0x20 PUSH1 0x0 KECCAK256 SWAP1 JUMPDEST DUP2 SLOAD DUP2 MSTORE SWAP1 PUSH1 0x1 ADD SWAP1 PUSH1 0x20 ADD DUP1 DUP4 GT PUSH2 0x412 JUMPI DUP3 SWAP1 SUB PUSH1 0x1F AND DUP3 ADD SWAP2 JUMPDEST POP POP POP POP POP SWAP5 POP DUP4 DUP1 SLOAD PUSH2 0x442 SWAP1 PUSH2 0x1B75 JUMP JUMPDEST DUP1 PUSH1 0x1F ADD PUSH1 0x20 DUP1 SWAP2 DIV MUL PUSH1 0x20 ADD PUSH1 0x40 MLOAD SWAP1 DUP2 ADD PUSH1 0x40 MSTORE DUP1 SWAP3 SWAP2 SWAP1 DUP2 DUP2 MSTORE PUSH1 0x20 ADD DUP3 DUP1 SLOAD PUSH2 0x46E SWAP1 PUSH2 0x1B75 JUMP JUMPDEST DUP1 ISZERO PUSH2 0x4BB JUMPI DUP1 PUSH1 0x1F LT PUSH2 0x490 JUMPI PUSH2 0x100 DUP1 DUP4 SLOAD DIV MUL DUP4 MSTORE SWAP2 PUSH1 0x20 ADD SWAP2 PUSH2 0x4BB JUMP JUMPDEST DUP3 ADD SWAP2 SWAP1 PUSH1 0x0 MSTORE PUSH1 0x20 PUSH1 0x0 KECCAK256 SWAP1 JUMPDEST DUP2 SLOAD DUP2 MSTORE SWAP1 PUSH1 0x1 ADD SWAP1 PUSH1 0x20 ADD DUP1 DUP4 GT PUSH2 0x49E JUMPI DUP3 SWAP1 SUB PUSH1 0x1F AND DUP3 ADD SWAP2 JUMPDEST POP POP POP POP POP SWAP4 POP DUP1 DUP1 SLOAD PUSH2 0x4CE SWAP1 PUSH2 0x1B75 JUMP JUMPDEST DUP1 PUSH1 0x1F ADD PUSH1 0x20 DUP1 SWAP2 DIV MUL PUSH1 0x20 ADD PUSH1 0x40 MLOAD SWAP1 DUP2 ADD PUSH1 0x40 MSTORE DUP1 SWAP3 SWAP2 SWAP1 DUP2 DUP2 MSTORE PUSH1 0x20 ADD DUP3 DUP1 SLOAD PUSH2 0x4FA SWAP1 PUSH2 0x1B75 JUMP JUMPDEST DUP1 ISZERO PUSH2 0x547 JUMPI DUP1 PUSH1 0x1F LT PUSH2 0x51C JUMPI PUSH2 0x100 DUP1 DUP4 SLOAD DIV MUL DUP4 MSTORE SWAP2 PUSH1 0x20 ADD SWAP2 PUSH2 0x547 JUMP JUMPDEST DUP3 ADD SWAP2 SWAP1 PUSH1 0x0 MSTORE PUSH1 0x20 PUSH1 0x0 KECCAK256 SWAP1 JUMPDEST DUP2 SLOAD DUP2 MSTORE SWAP1 PUSH1 0x1 ADD SWAP1 PUSH1 0x20 ADD DUP1 DUP4 GT PUSH2 0x52A JUMPI DUP3 SWAP1 SUB PUSH1 0x1F AND DUP3 ADD SWAP2 JUMPDEST POP POP POP POP POP SWAP1 POP SWAP10 POP SWAP10 POP SWAP10 POP SWAP10 POP SWAP10 POP SWAP10 POP SWAP10 POP SWAP10 POP POP POP SWAP2 SWAP4 SWAP6 SWAP8 POP SWAP2 SWAP4 SWAP6 SWAP8 JUMP JUMPDEST PUSH1 0x1 DUP2 DUP1 MLOAD PUSH1 0x20 DUP2 ADD DUP3 ADD DUP1 MLOAD DUP5 DUP3 MSTORE PUSH1 0x20 DUP4 ADD PUSH1 0x20 DUP6 ADD KECCAK256 DUP2 DUP4 MSTORE DUP1 SWAP6 POP POP POP POP POP POP PUSH1 0x0 SWAP2 POP SWAP1 POP SLOAD DUP2 JUMP JUMPDEST PUSH1 0x0 DUP2 DUP2 SLOAD DUP2 LT PUSH2 0x5A9 JUMPI PUSH1 0x0 DUP1 REVERT JUMPDEST SWAP1 PUSH1 0x0 MSTORE PUSH1 0x20 PUSH1 0x0 KECCAK256 SWAP1 PUSH1 0x8 MUL ADD PUSH1 0x0 SWAP2 POP SWAP1 POP DUP1 PUSH1 0x0 ADD DUP1 SLOAD PUSH2 0x5CC SWAP1 PUSH2 0x1B75 JUMP JUMPDEST DUP1 PUSH1 0x1F ADD PUSH1 0x20 DUP1 SWAP2 DIV MUL PUSH1 0x20 ADD PUSH1 0x40 MLOAD SWAP1 DUP2 ADD PUSH1 0x40 MSTORE DUP1 SWAP3 SWAP2 SWAP1 DUP2 DUP2 MSTORE PUSH1 0x20 ADD DUP3 DUP1 SLOAD PUSH2 0x5F8 SWAP1 PUSH2 0x1B75 JUMP JUMPDEST DUP1 ISZERO PUSH2 0x645 JUMPI DUP1 PUSH1 0x1F LT PUSH2 0x61A JUMPI PUSH2 0x100 DUP1 DUP4 SLOAD DIV MUL DUP4 MSTORE SWAP2 PUSH1 0x20 ADD SWAP2 PUSH2 0x645 JUMP JUMPDEST DUP3 ADD SWAP2 SWAP1 PUSH1 0x0 MSTORE PUSH1 0x20 PUSH1 0x0 KECCAK256 SWAP1 JUMPDEST DUP2 SLOAD DUP2 MSTORE SWAP1 PUSH1 0x1 ADD SWAP1 PUSH1 0x20 ADD DUP1 DUP4 GT PUSH2 0x628 JUMPI DUP3 SWAP1 SUB PUSH1 0x1F AND DUP3 ADD SWAP2 JUMPDEST POP POP POP POP POP SWAP1 DUP1 PUSH1 0x1 ADD DUP1 SLOAD PUSH2 0x65A SWAP1 PUSH2 0x1B75 JUMP JUMPDEST DUP1 PUSH1 0x1F ADD PUSH1 0x20 DUP1 SWAP2 DIV MUL PUSH1 0x20 ADD PUSH1 0x40 MLOAD SWAP1 DUP2 ADD PUSH1 0x40 MSTORE DUP1 SWAP3 SWAP2 SWAP1 DUP2 DUP2 MSTORE PUSH1 0x20 ADD DUP3 DUP1 SLOAD PUSH2 0x686 SWAP1 PUSH2 0x1B75 JUMP JUMPDEST DUP1 ISZERO PUSH2 0x6D3 JUMPI DUP1 PUSH1 0x1F LT PUSH2 0x6A8 JUMPI PUSH2 0x100 DUP1 DUP4 SLOAD DIV MUL DUP4 MSTORE SWAP2 PUSH1 0x20 ADD SWAP2 PUSH2 0x6D3 JUMP JUMPDEST DUP3 ADD SWAP2 SWAP1 PUSH1 0x0 MSTORE PUSH1 0x20 PUSH1 0x0 KECCAK256 SWAP1 JUMPDEST DUP2 SLOAD DUP2 MSTORE SWAP1 PUSH1 0x1 ADD SWAP1 PUSH1 0x20 ADD DUP1 DUP4 GT PUSH2 0x6B6 JUMPI DUP3 SWAP1 SUB PUSH1 0x1F AND DUP3 ADD SWAP2 JUMPDEST POP POP POP POP POP SWAP1 DUP1 PUSH1 0x2 ADD SLOAD SWAP1 DUP1 PUSH1 0x3 ADD DUP1 SLOAD PUSH2 0x6EE SWAP1 PUSH2 0x1B75 JUMP JUMPDEST DUP1 PUSH1 0x1F ADD PUSH1 0x20 DUP1 SWAP2 DIV MUL PUSH1 0x20 ADD PUSH1 0x40 MLOAD SWAP1 DUP2 ADD PUSH1 0x40 MSTORE DUP1 SWAP3 SWAP2 SWAP1 DUP2 DUP2 MSTORE PUSH1 0x20 ADD DUP3 DUP1 SLOAD PUSH2 0x71A SWAP1 PUSH2 0x1B75 JUMP JUMPDEST DUP1 ISZERO PUSH2 0x767 JUMPI DUP1 PUSH1 0x1F LT PUSH2 0x73C JUMPI PUSH2 0x100 DUP1 DUP4 SLOAD DIV MUL DUP4 MSTORE SWAP2 PUSH1 0x20 ADD SWAP2 PUSH2 0x767 JUMP JUMPDEST DUP3 ADD SWAP2 SWAP1 PUSH1 0x0 MSTORE PUSH1 0x20 PUSH1 0x0 KECCAK256 SWAP1 JUMPDEST DUP2 SLOAD DUP2 MSTORE SWAP1 PUSH1 0x1 ADD SWAP1 PUSH1 0x20 ADD DUP1 DUP4 GT PUSH2 0x74A JUMPI DUP3 SWAP1 SUB PUSH1 0x1F AND DUP3 ADD SWAP2 JUMPDEST POP POP POP POP POP SWAP1 DUP1 PUSH1 0x4 ADD DUP1 SLOAD PUSH2 0x77C SWAP1 PUSH2 0x1B75 JUMP JUMPDEST DUP1 PUSH1 0x1F ADD PUSH1 0x20 DUP1 SWAP2 DIV MUL PUSH1 0x20 ADD PUSH1 0x40 MLOAD SWAP1 DUP2 ADD PUSH1 0x40 MSTORE DUP1 SWAP3 SWAP2 SWAP1 DUP2 DUP2 MSTORE PUSH1 0x20 ADD DUP3 DUP1 SLOAD PUSH2 0x7A8 SWAP1 PUSH2 0x1B75 JUMP JUMPDEST DUP1 ISZERO PUSH2 0x7F5 JUMPI DUP1 PUSH1 0x1F LT PUSH2 0x7CA JUMPI PUSH2 0x100 DUP1 DUP4 SLOAD DIV MUL DUP4 MSTORE SWAP2 PUSH1 0x20 ADD SWAP2 PUSH2 0x7F5 JUMP JUMPDEST DUP3 ADD SWAP2 SWAP1 PUSH1 0x0 MSTORE PUSH1 0x20 PUSH1 0x0 KECCAK256 SWAP1 JUMPDEST DUP2 SLOAD DUP2 MSTORE SWAP1 PUSH1 0x1 ADD SWAP1 PUSH1 0x20 ADD DUP1 DUP4 GT PUSH2 0x7D8 JUMPI DUP3 SWAP1 SUB PUSH1 0x1F AND DUP3 ADD SWAP2 JUMPDEST POP POP POP POP POP SWAP1 DUP1 PUSH1 0x5 ADD PUSH1 0x0 SWAP1 SLOAD SWAP1 PUSH2 0x100 EXP SWAP1 DIV PUSH1 0xFF AND SWAP1 DUP1 PUSH1 0x5 ADD PUSH1 0x1 SWAP1 SLOAD SWAP1 PUSH2 0x100 EXP SWAP1 DIV PUSH20 0xFFFFFFFFFFFFFFFFFFFFFFFFFFFFFFFFFFFFFFFF AND SWAP1 DUP1 PUSH1 0x6 ADD SLOAD SWAP1 DUP1 PUSH1 0x7 ADD DUP1 SLOAD PUSH2 0x849 SWAP1 PUSH2 0x1B75 JUMP JUMPDEST DUP1 PUSH1 0x1F ADD PUSH1 0x20 DUP1 SWAP2 DIV MUL PUSH1 0x20 ADD PUSH1 0x40 MLOAD SWAP1 DUP2 ADD PUSH1 0x40 MSTORE DUP1 SWAP3 SWAP2 SWAP1 DUP2 DUP2 MSTORE PUSH1 0x20 ADD DUP3 DUP1 SLOAD PUSH2 0x875 SWAP1 PUSH2 0x1B75 JUMP JUMPDEST DUP1 ISZERO PUSH2 0x8C2 JUMPI DUP1 PUSH1 0x1F LT PUSH2 0x897 JUMPI PUSH2 0x100 DUP1 DUP4 SLOAD DIV MUL DUP4 MSTORE SWAP2 PUSH1 0x20 ADD SWAP2 PUSH2 0x8C2 JUMP JUMPDEST DUP3 ADD SWAP2 SWAP1 PUSH1 0x0 MSTORE PUSH1 0x20 PUSH1 0x0 KECCAK256 SWAP1 JUMPDEST DUP2 SLOAD DUP2 MSTORE SWAP1 PUSH1 0x1 ADD SWAP1 PUSH1 0x20 ADD DUP1 DUP4 GT PUSH2 0x8A5 JUMPI DUP3 SWAP1 SUB PUSH1 0x1F AND DUP3 ADD SWAP2 JUMPDEST POP POP POP POP POP SWAP1 POP DUP10 JUMP JUMPDEST PUSH1 0x0 DUP1 DUP1 SLOAD SWAP1 POP SWAP1 POP SWAP1 JUMP JUMPDEST PUSH1 0x2 PUSH1 0x0 SWAP1 SLOAD SWAP1 PUSH2 0x100 EXP SWAP1 DIV PUSH20 0xFFFFFFFFFFFFFFFFFFFFFFFFFFFFFFFFFFFFFFFF AND PUSH20 0xFFFFFFFFFFFFFFFFFFFFFFFFFFFFFFFFFFFFFFFF AND CALLER PUSH20 0xFFFFFFFFFFFFFFFFFFFFFFFFFFFFFFFFFFFFFFFF AND EQ PUSH2 0x968 JUMPI PUSH1 0x40 MLOAD PUSH32 0x8C379A000000000000000000000000000000000000000000000000000000000 DUP2 MSTORE PUSH1 0x4 ADD PUSH2 0x95F SWAP1 PUSH2 0x1BF2 JUMP JUMPDEST PUSH1 0x40 MLOAD DUP1 SWAP2 SUB SWAP1 REVERT JUMPDEST PUSH1 0x0 PUSH1 0x1 DUP5 PUSH1 0x40 MLOAD PUSH2 0x97A SWAP2 SWAP1 PUSH2 0x1A31 JUMP JUMPDEST SWAP1 DUP2 MSTORE PUSH1 0x20 ADD PUSH1 0x40 MLOAD DUP1 SWAP2 SUB SWAP1 KECCAK256 SLOAD SWAP1 POP PUSH1 0x0 DUP2 SUB PUSH2 0x9CE JUMPI PUSH1 0x40 MLOAD PUSH32 0x8C379A000000000000000000000000000000000000000000000000000000000 DUP2 MSTORE PUSH1 0x4 ADD PUSH2 0x9C5 SWAP1 PUSH2 0x1A94 JUMP JUMPDEST PUSH1 0x40 MLOAD DUP1 SWAP2 SUB SWAP1 REVERT JUMPDEST DUP3 PUSH1 0x0 PUSH1 0x1 DUP4 PUSH2 0x9DE SWAP2 SWAP1 PUSH2 0x1AE3 JUMP JUMPDEST DUP2 SLOAD DUP2 LT PUSH2 0x9EF JUMPI PUSH2 0x9EE PUSH2 0x1B17 JUMP JUMPDEST JUMPDEST SWAP1 PUSH1 0x0 MSTORE PUSH1 0x20 PUSH1 0x0 KECCAK256 SWAP1 PUSH1 0x8 MUL ADD PUSH1 0x5 ADD PUSH1 0x0 PUSH2 0x100 EXP DUP2 SLOAD DUP2 PUSH1 0xFF MUL NOT AND SWAP1 DUP4 PUSH1 0x5 DUP2 GT ISZERO PUSH2 0xA22 JUMPI PUSH2 0xA21 PUSH2 0x1386 JUMP JUMPDEST JUMPDEST MUL OR SWAP1 SSTORE POP DUP2 PUSH1 0x0 PUSH1 0x1 DUP4 PUSH2 0xA37 SWAP2 SWAP1 PUSH2 0x1AE3 JUMP JUMPDEST DUP2 SLOAD DUP2 LT PUSH2 0xA48 JUMPI PUSH2 0xA47 PUSH2 0x1B17 JUMP JUMPDEST JUMPDEST SWAP1 PUSH1 0x0 MSTORE PUSH1 0x20 PUSH1 0x0 KECCAK256 SWAP1 PUSH1 0x8 MUL ADD PUSH1 0x7 ADD SWAP1 DUP2 PUSH2 0xA65 SWAP2 SWAP1 PUSH2 0x1DBE JUMP JUMPDEST POP PUSH32 0x547EC93472E92C64C5CB51AF93286E95E7CECFCBA2C38F9E9F8A8032FFF5FB8E DUP5 DUP5 DUP5 TIMESTAMP PUSH1 0x40 MLOAD PUSH2 0xA9B SWAP5 SWAP4 SWAP3 SWAP2 SWAP1 PUSH2 0x1E90 JUMP JUMPDEST PUSH1 0x40 MLOAD DUP1 SWAP2 SUB SWAP1 LOG1 POP POP POP POP JUMP JUMPDEST PUSH1 0x60 PUSH1 0x0 DUP1 SLOAD DUP1 PUSH1 0x20 MUL PUSH1 0x20 ADD PUSH1 0x40 MLOAD SWAP1 DUP2 ADD PUSH1 0x40 MSTORE DUP1 SWAP3 SWAP2 SWAP1 DUP2 DUP2 MSTORE PUSH1 0x20 ADD PUSH1 0x0 SWAP1 JUMPDEST DUP3 DUP3 LT ISZERO PUSH2 0xE7F JUMPI DUP4 DUP3 SWAP1 PUSH1 0x0 MSTORE PUSH1 0x20 PUSH1 0x0 KECCAK256 SWAP1 PUSH1 0x8 MUL ADD PUSH1 0x40 MLOAD DUP1 PUSH2 0x120 ADD PUSH1 0x40 MSTORE SWAP1 DUP2 PUSH1 0x0 DUP3 ADD DUP1 SLOAD PUSH2 0xB01 SWAP1 PUSH2 0x1B75 JUMP JUMPDEST DUP1 PUSH1 0x1F ADD PUSH1 0x20 DUP1 SWAP2 DIV MUL PUSH1 0x20 ADD PUSH1 0x40 MLOAD SWAP1 DUP2 ADD PUSH1 0x40 MSTORE DUP1 SWAP3 SWAP2 SWAP1 DUP2 DUP2 MSTORE PUSH1 0x20 ADD DUP3 DUP1 SLOAD PUSH2 0xB2D SWAP1 PUSH2 0x1B75 JUMP JUMPDEST DUP1 ISZERO PUSH2 0xB7A JUMPI DUP1 PUSH1 0x1F LT PUSH2 0xB4F JUMPI PUSH2 0x100 DUP1 DUP4 SLOAD DIV MUL DUP4 MSTORE SWAP2 PUSH1 0x20 ADD SWAP2 PUSH2 0xB7A JUMP JUMPDEST DUP3 ADD SWAP2 SWAP1 PUSH1 0x0 MSTORE PUSH1 0x20 PUSH1 0x0 KECCAK256 SWAP1 JUMPDEST DUP2 SLOAD DUP2 MSTORE SWAP1 PUSH1 0x1 ADD SWAP1 PUSH1 0x20 ADD DUP1 DUP4 GT PUSH2 0xB5D JUMPI DUP3 SWAP1 SUB PUSH1 0x1F AND DUP3 ADD SWAP2 JUMPDEST POP POP POP POP POP DUP2 MSTORE PUSH1 0x20 ADD PUSH1 0x1 DUP3 ADD DUP1 SLOAD PUSH2 0xB93 SWAP1 PUSH2 0x1B75 JUMP JUMPDEST DUP1 PUSH1 0x1F ADD PUSH1 0x20 DUP1 SWAP2 DIV MUL PUSH1 0x20 ADD PUSH1 0x40 MLOAD SWAP1 DUP2 ADD PUSH1 0x40 MSTORE DUP1 SWAP3 SWAP2 SWAP1 DUP2 DUP2 MSTORE PUSH1 0x20 ADD DUP3 DUP1 SLOAD PUSH2 0xBBF SWAP1 PUSH2 0x1B75 JUMP JUMPDEST DUP1 ISZERO PUSH2 0xC0C JUMPI DUP1 PUSH1 0x1F LT PUSH2 0xBE1 JUMPI PUSH2 0x100 DUP1 DUP4 SLOAD DIV MUL DUP4 MSTORE SWAP2 PUSH1 0x20 ADD SWAP2 PUSH2 0xC0C JUMP JUMPDEST DUP3 ADD SWAP2 SWAP1 PUSH1 0x0 MSTORE PUSH1 0x20 PUSH1 0x0 KECCAK256 SWAP1 JUMPDEST DUP2 SLOAD DUP2 MSTORE SWAP1 PUSH1 0x1 ADD SWAP1 PUSH1 0x20 ADD DUP1 DUP4 GT PUSH2 0xBEF JUMPI DUP3 SWAP1 SUB PUSH1 0x1F AND DUP3 ADD SWAP2 JUMPDEST POP POP POP POP POP DUP2 MSTORE PUSH1 0x20 ADD PUSH1 0x2 DUP3 ADD SLOAD DUP2 MSTORE PUSH1 0x20 ADD PUSH1 0x3 DUP3 ADD DUP1 SLOAD PUSH2 0xC2F SWAP1 PUSH2 0x1B75 JUMP JUMPDEST DUP1 PUSH1 0x1F ADD PUSH1 0x20 DUP1 SWAP2 DIV MUL PUSH1 0x20 ADD PUSH1 0x40 MLOAD SWAP1 DUP2 ADD PUSH1 0x40 MSTORE DUP1 SWAP3 SWAP2 SWAP1 DUP2 DUP2 MSTORE PUSH1 0x20 ADD DUP3 DUP1 SLOAD PUSH2 0xC5B SWAP1 PUSH2 0x1B75 JUMP JUMPDEST DUP1 ISZERO PUSH2 0xCA8 JUMPI DUP1 PUSH1 0x1F LT PUSH2 0xC7D JUMPI PUSH2 0x100 DUP1 DUP4 SLOAD DIV MUL DUP4 MSTORE SWAP2 PUSH1 0x20 ADD SWAP2 PUSH2 0xCA8 JUMP JUMPDEST DUP3 ADD SWAP2 SWAP1 PUSH1 0x0 MSTORE PUSH1 0x20 PUSH1 0x0 KECCAK256 SWAP1 JUMPDEST DUP2 SLOAD DUP2 MSTORE SWAP1 PUSH1 0x1 ADD SWAP1 PUSH1 0x20 ADD DUP1 DUP4 GT PUSH2 0xC8B JUMPI DUP3 SWAP1 SUB PUSH1 0x1F AND DUP3 ADD SWAP2 JUMPDEST POP POP POP POP POP DUP2 MSTORE PUSH1 0x20 ADD PUSH1 0x4 DUP3 ADD DUP1 SLOAD PUSH2 0xCC1 SWAP1 PUSH2 0x1B75 JUMP JUMPDEST DUP1 PUSH1 0x1F ADD PUSH1 0x20 DUP1 SWAP2 DIV MUL PUSH1 0x20 ADD PUSH1 0x40 MLOAD SWAP1 DUP2 ADD PUSH1 0x40 MSTORE DUP1 SWAP3 SWAP2 SWAP1 DUP2 DUP2 MSTORE PUSH1 0x20 ADD DUP3 DUP1 SLOAD PUSH2 0xCED SWAP1 PUSH2 0x1B75 JUMP JUMPDEST DUP1 ISZERO PUSH2 0xD3A JUMPI DUP1 PUSH1 0x1F LT PUSH2 0xD0F JUMPI PUSH2 0x100 DUP1 DUP4 SLOAD DIV MUL DUP4 MSTORE SWAP2 PUSH1 0x20 ADD SWAP2 PUSH2 0xD3A JUMP JUMPDEST DUP3 ADD SWAP2 SWAP1 PUSH1 0x0 MSTORE PUSH1 0x20 PUSH1 0x0 KECCAK256 SWAP1 JUMPDEST DUP2 SLOAD DUP2 MSTORE SWAP1 PUSH1 0x1 ADD SWAP1 PUSH1 0x20 ADD DUP1 DUP4 GT PUSH2 0xD1D JUMPI DUP3 SWAP1 SUB PUSH1 0x1F AND DUP3 ADD SWAP2 JUMPDEST POP POP POP POP POP DUP2 MSTORE PUSH1 0x20 ADD PUSH1 0x5 DUP3 ADD PUSH1 0x0 SWAP1 SLOAD SWAP1 PUSH2 0x100 EXP SWAP1 DIV PUSH1 0xFF AND PUSH1 0x5 DUP2 GT ISZERO PUSH2 0xD68 JUMPI PUSH2 0xD67 PUSH2 0x1386 JUMP JUMPDEST JUMPDEST PUSH1 0x5 DUP2 GT ISZERO PUSH2 0xD7A JUMPI PUSH2 0xD79 PUSH2 0x1386 JUMP JUMPDEST JUMPDEST DUP2 MSTORE PUSH1 0x20 ADD PUSH1 0x5 DUP3 ADD PUSH1 0x1 SWAP1 SLOAD SWAP1 PUSH2 0x100 EXP SWAP1 DIV PUSH20 0xFFFFFFFFFFFFFFFFFFFFFFFFFFFFFFFFFFFFFFFF AND PUSH20 0xFFFFFFFFFFFFFFFFFFFFFFFFFFFFFFFFFFFFFFFF AND PUSH20 0xFFFFFFFFFFFFFFFFFFFFFFFFFFFFFFFFFFFFFFFF AND DUP2 MSTORE PUSH1 0x20 ADD PUSH1 0x6 DUP3 ADD SLOAD DUP2 MSTORE PUSH1 0x20 ADD PUSH1 0x7 DUP3 ADD DUP1 SLOAD PUSH2 0xDEE SWAP1 PUSH2 0x1B75 JUMP JUMPDEST DUP1 PUSH1 0x1F ADD PUSH1 0x20 DUP1 SWAP2 DIV MUL PUSH1 0x20 ADD PUSH1 0x40 MLOAD SWAP1 DUP2 ADD PUSH1 0x40 MSTORE DUP1 SWAP3 SWAP2 SWAP1 DUP2 DUP2 MSTORE PUSH1 0x20 ADD DUP3 DUP1 SLOAD PUSH2 0xE1A SWAP1 PUSH2 0x1B75 JUMP JUMPDEST DUP1 ISZERO PUSH2 0xE67 JUMPI DUP1 PUSH1 0x1F LT PUSH2 0xE3C JUMPI PUSH2 0x100 DUP1 DUP4 SLOAD DIV MUL DUP4 MSTORE SWAP2 PUSH1 0x20 ADD SWAP2 PUSH2 0xE67 JUMP JUMPDEST DUP3 ADD SWAP2 SWAP1 PUSH1 0x0 MSTORE PUSH1 0x20 PUSH1 0x0 KECCAK256 SWAP1 JUMPDEST DUP2 SLOAD DUP2 MSTORE SWAP1 PUSH1 0x1 ADD SWAP1 PUSH1 0x20 ADD DUP1 DUP4 GT PUSH2 0xE4A JUMPI DUP3 SWAP1 SUB PUSH1 0x1F AND DUP3 ADD SWAP2 JUMPDEST POP POP POP POP POP DUP2 MSTORE POP POP DUP2 MSTORE PUSH1 0x20 ADD SWAP1 PUSH1 0x1 ADD SWAP1 PUSH2 0xACD JUMP JUMPDEST POP POP POP POP SWAP1 POP SWAP1 JUMP JUMPDEST PUSH1 0x2 PUSH1 0x0 SWAP1 SLOAD SWAP1 PUSH2 0x100 EXP SWAP1 DIV PUSH20 0xFFFFFFFFFFFFFFFFFFFFFFFFFFFFFFFFFFFFFFFF AND PUSH20 0xFFFFFFFFFFFFFFFFFFFFFFFFFFFFFFFFFFFFFFFF AND CALLER PUSH20 0xFFFFFFFFFFFFFFFFFFFFFFFFFFFFFFFFFFFFFFFF AND EQ PUSH2 0xF18 JUMPI PUSH1 0x40 MLOAD PUSH32 0x8C379A000000000000000000000000000000000000000000000000000000000 DUP2 MSTORE PUSH1 0x4 ADD PUSH2 0xF0F SWAP1 PUSH2 0x1BF2 JUMP JUMPDEST PUSH1 0x40 MLOAD DUP1 SWAP2 SUB SWAP1 REVERT JUMPDEST PUSH1 0x0 PUSH1 0x40 MLOAD DUP1 PUSH2 0x120 ADD PUSH1 0x40 MSTORE DUP1 DUP8 DUP2 MSTORE PUSH1 0x20 ADD DUP7 DUP2 MSTORE PUSH1 0x20 ADD DUP6 DUP2 MSTORE PUSH1 0x20 ADD DUP5 DUP2 MSTORE PUSH1 0x20 ADD DUP4 DUP2 MSTORE PUSH1 0x20 ADD PUSH1 0x0 PUSH1 0x5 DUP2 GT ISZERO PUSH2 0xF58 JUMPI PUSH2 0xF57 PUSH2 0x1386 JUMP JUMPDEST JUMPDEST DUP2 MSTORE PUSH1 0x20 ADD CALLER PUSH20 0xFFFFFFFFFFFFFFFFFFFFFFFFFFFFFFFFFFFFFFFF AND DUP2 MSTORE PUSH1 0x20 ADD TIMESTAMP DUP2 MSTORE PUSH1 0x20 ADD PUSH1 0x40 MLOAD DUP1 PUSH1 0x20 ADD PUSH1 0x40 MSTORE DUP1 PUSH1 0x0 DUP2 MSTORE POP DUP2 MSTORE POP SWAP1 DUP1 PUSH1 0x1 DUP2 SLOAD ADD DUP1 DUP3 SSTORE DUP1 SWAP2 POP POP PUSH1 0x1 SWAP1 SUB SWAP1 PUSH1 0x0 MSTORE PUSH1 0x20 PUSH1 0x0 KECCAK256 SWAP1 PUSH1 0x8 MUL ADD PUSH1 0x0 SWAP1 SWAP2 SWAP1 SWAP2 SWAP1 SWAP2 POP PUSH1 0x0 DUP3 ADD MLOAD DUP2 PUSH1 0x0 ADD SWAP1 DUP2 PUSH2 0xFD0 SWAP2 SWAP1 PUSH2 0x1DBE JUMP JUMPDEST POP PUSH1 0x20 DUP3 ADD MLOAD DUP2 PUSH1 0x1 ADD SWAP1 DUP2 PUSH2 0xFE6 SWAP2 SWAP1 PUSH2 0x1DBE JUMP JUMPDEST POP PUSH1 0x40 DUP3 ADD MLOAD DUP2 PUSH1 0x2 ADD SSTORE PUSH1 0x60 DUP3 ADD MLOAD DUP2 PUSH1 0x3 ADD SWAP1 DUP2 PUSH2 0x1006 SWAP2 SWAP1 PUSH2 0x1DBE JUMP JUMPDEST POP PUSH1 0x80 DUP3 ADD MLOAD DUP2 PUSH1 0x4 ADD SWAP1 DUP2 PUSH2 0x101C SWAP2 SWAP1 PUSH2 0x1DBE JUMP JUMPDEST POP PUSH1 0xA0 DUP3 ADD MLOAD DUP2 PUSH1 0x5 ADD PUSH1 0x0 PUSH2 0x100 EXP DUP2 SLOAD DUP2 PUSH1 0xFF MUL NOT AND SWAP1 DUP4 PUSH1 0x5 DUP2 GT ISZERO PUSH2 0x1048 JUMPI PUSH2 0x1047 PUSH2 0x1386 JUMP JUMPDEST JUMPDEST MUL OR SWAP1 SSTORE POP PUSH1 0xC0 DUP3 ADD MLOAD DUP2 PUSH1 0x5 ADD PUSH1 0x1 PUSH2 0x100 EXP DUP2 SLOAD DUP2 PUSH20 0xFFFFFFFFFFFFFFFFFFFFFFFFFFFFFFFFFFFFFFFF MUL NOT AND SWAP1 DUP4 PUSH20 0xFFFFFFFFFFFFFFFFFFFFFFFFFFFFFFFFFFFFFFFF AND MUL OR SWAP1 SSTORE POP PUSH1 0xE0 DUP3 ADD MLOAD DUP2 PUSH1 0x6 ADD SSTORE PUSH2 0x100 DUP3 ADD MLOAD DUP2 PUSH1 0x7 ADD SWAP1 DUP2 PUSH2 0x10B4 SWAP2 SWAP1 PUSH2 0x1DBE JUMP JUMPDEST POP POP POP PUSH1 0x0 DUP1 SLOAD SWAP1 POP PUSH1 0x1 DUP7 PUSH1 0x40 MLOAD PUSH2 0x10CD SWAP2 SWAP1 PUSH2 0x1A31 JUMP JUMPDEST SWAP1 DUP2 MSTORE PUSH1 0x20 ADD PUSH1 0x40 MLOAD DUP1 SWAP2 SUB SWAP1 KECCAK256 DUP2 SWAP1 SSTORE POP PUSH32 0x61739E95E5DD9298EC0E80FDA82D36F019649213243C1D94361708872BBBFC1B DUP6 DUP6 DUP6 DUP5 TIMESTAMP PUSH1 0x40 MLOAD PUSH2 0x1116 SWAP6 SWAP5 SWAP4 SWAP3 SWAP2 SWAP1 PUSH2 0x1EE3 JUMP JUMPDEST PUSH1 0x40 MLOAD DUP1 SWAP2 SUB SWAP1 LOG1 POP POP POP POP POP JUMP JUMPDEST PUSH1 0x2 PUSH1 0x0 SWAP1 SLOAD SWAP1 PUSH2 0x100 EXP SWAP1 DIV PUSH20 0xFFFFFFFFFFFFFFFFFFFFFFFFFFFFFFFFFFFFFFFF AND DUP2 JUMP JUMPDEST PUSH1 0x0 PUSH1 0x40 MLOAD SWAP1 POP SWAP1 JUMP JUMPDEST PUSH1 0x0 DUP1 REVERT JUMPDEST PUSH1 0x0 DUP1 REVERT JUMPDEST PUSH1 0x0 DUP1 REVERT JUMPDEST PUSH1 0x0 DUP1 REVERT JUMPDEST PUSH1 0x0 PUSH1 0x1F NOT PUSH1 0x1F DUP4 ADD AND SWAP1 POP SWAP2 SWAP1 POP JUMP JUMPDEST PUSH32 0x4E487B7100000000000000000000000000000000000000000000000000000000 PUSH1 0x0 MSTORE PUSH1 0x41 PUSH1 0x4 MSTORE PUSH1 0x24 PUSH1 0x0 REVERT JUMPDEST PUSH2 0x11B2 DUP3 PUSH2 0x1169 JUMP JUMPDEST DUP2 ADD DUP2 DUP2 LT PUSH8 0xFFFFFFFFFFFFFFFF DUP3 GT OR ISZERO PUSH2 0x11D1 JUMPI PUSH2 0x11D0 PUSH2 0x117A JUMP JUMPDEST JUMPDEST DUP1 PUSH1 0x40 MSTORE POP POP POP JUMP JUMPDEST PUSH1 0x0 PUSH2 0x11E4 PUSH2 0x114B JUMP JUMPDEST SWAP1 POP PUSH2 0x11F0 DUP3 DUP3 PUSH2 0x11A9 JUMP JUMPDEST SWAP2 SWAP1 POP JUMP JUMPDEST PUSH1 0x0 PUSH8 0xFFFFFFFFFFFFFFFF DUP3 GT ISZERO PUSH2 0x1210 JUMPI PUSH2 0x120F PUSH2 0x117A JUMP JUMPDEST JUMPDEST PUSH2 0x1219 DUP3 PUSH2 0x1169 JUMP JUMPDEST SWAP1 POP PUSH1 0x20 DUP2 ADD SWAP1 POP SWAP2 SWAP1 POP JUMP JUMPDEST DUP3 DUP2 DUP4 CALLDATACOPY PUSH1 0x0 DUP4 DUP4 ADD MSTORE POP POP POP JUMP JUMPDEST PUSH1 0x0 PUSH2 0x1248 PUSH2 0x1243 DUP5 PUSH2 0x11F5 JUMP JUMPDEST PUSH2 0x11DA JUMP JUMPDEST SWAP1 POP DUP3 DUP2 MSTORE PUSH1 0x20 DUP2 ADD DUP5 DUP5 DUP5 ADD GT ISZERO PUSH2 0x1264 JUMPI PUSH2 0x1263 PUSH2 0x1164 JUMP JUMPDEST JUMPDEST PUSH2 0x126F DUP5 DUP3 DUP6 PUSH2 0x1226 JUMP JUMPDEST POP SWAP4 SWAP3 POP POP POP JUMP JUMPDEST PUSH1 0x0 DUP3 PUSH1 0x1F DUP4 ADD SLT PUSH2 0x128C JUMPI PUSH2 0x128B PUSH2 0x115F JUMP JUMPDEST JUMPDEST DUP2 CALLDATALOAD PUSH2 0x129C DUP5 DUP3 PUSH1 0x20 DUP7 ADD PUSH2 0x1235 JUMP JUMPDEST SWAP2 POP POP SWAP3 SWAP2 POP POP JUMP JUMPDEST PUSH1 0x0 PUSH1 0x20 DUP3 DUP5 SUB SLT ISZERO PUSH2 0x12BB JUMPI PUSH2 0x12BA PUSH2 0x1155 JUMP JUMPDEST JUMPDEST PUSH1 0x0 DUP3 ADD CALLDATALOAD PUSH8 0xFFFFFFFFFFFFFFFF DUP2 GT ISZERO PUSH2 0x12D9 JUMPI PUSH2 0x12D8 PUSH2 0x115A JUMP JUMPDEST JUMPDEST PUSH2 0x12E5 DUP5 DUP3 DUP6 ADD PUSH2 0x1277 JUMP JUMPDEST SWAP2 POP POP SWAP3 SWAP2 POP POP JUMP JUMPDEST PUSH1 0x0 DUP2 MLOAD SWAP1 POP SWAP2 SWAP1 POP JUMP JUMPDEST PUSH1 0x0 DUP3 DUP3 MSTORE PUSH1 0x20 DUP3 ADD SWAP1 POP SWAP3 SWAP2 POP POP JUMP JUMPDEST PUSH1 0x0 JUMPDEST DUP4 DUP2 LT ISZERO PUSH2 0x1328 JUMPI DUP1 DUP3 ADD MLOAD DUP2 DUP5 ADD MSTORE PUSH1 0x20 DUP2 ADD SWAP1 POP PUSH2 0x130D JUMP JUMPDEST PUSH1 0x0 DUP5 DUP5 ADD MSTORE POP POP POP POP JUMP JUMPDEST PUSH1 0x0 PUSH2 0x133F DUP3 PUSH2 0x12EE JUMP JUMPDEST PUSH2 0x1349 DUP2 DUP6 PUSH2 0x12F9 JUMP JUMPDEST SWAP4 POP PUSH2 0x1359 DUP2 DUP6 PUSH1 0x20 DUP7 ADD PUSH2 0x130A JUMP JUMPDEST PUSH2 0x1362 DUP2 PUSH2 0x1169 JUMP JUMPDEST DUP5 ADD SWAP2 POP POP SWAP3 SWAP2 POP POP JUMP JUMPDEST PUSH1 0x0 DUP2 SWAP1 POP SWAP2 SWAP1 POP JUMP JUMPDEST PUSH2 0x1380 DUP2 PUSH2 0x136D JUMP JUMPDEST DUP3 MSTORE POP POP JUMP JUMPDEST PUSH32 0x4E487B7100000000000000000000000000000000000000000000000000000000 PUSH1 0x0 MSTORE PUSH1 0x21 PUSH1 0x4 MSTORE PUSH1 0x24 PUSH1 0x0 REVERT JUMPDEST PUSH1 0x6 DUP2 LT PUSH2 0x13C6 JUMPI PUSH2 0x13C5 PUSH2 0x1386 JUMP JUMPDEST JUMPDEST POP JUMP JUMPDEST PUSH1 0x0 DUP2 SWAP1 POP PUSH2 0x13D7 DUP3 PUSH2 0x13B5 JUMP JUMPDEST SWAP2 SWAP1 POP JUMP JUMPDEST PUSH1 0x0 PUSH2 0x13E7 DUP3 PUSH2 0x13C9 JUMP JUMPDEST SWAP1 POP SWAP2 SWAP1 POP JUMP JUMPDEST PUSH2 0x13F7 DUP2 PUSH2 0x13DC JUMP JUMPDEST DUP3 MSTORE POP POP JUMP JUMPDEST PUSH1 0x0 PUSH2 0x100 DUP3 ADD SWAP1 POP DUP2 DUP2 SUB PUSH1 0x0 DUP4 ADD MSTORE PUSH2 0x1418 DUP2 DUP12 PUSH2 0x1334 JUMP JUMPDEST SWAP1 POP DUP2 DUP2 SUB PUSH1 0x20 DUP4 ADD MSTORE PUSH2 0x142C DUP2 DUP11 PUSH2 0x1334 JUMP JUMPDEST SWAP1 POP PUSH2 0x143B PUSH1 0x40 DUP4 ADD DUP10 PUSH2 0x1377 JUMP JUMPDEST DUP2 DUP2 SUB PUSH1 0x60 DUP4 ADD MSTORE PUSH2 0x144D DUP2 DUP9 PUSH2 0x1334 JUMP JUMPDEST SWAP1 POP DUP2 DUP2 SUB PUSH1 0x80 DUP4 ADD MSTORE PUSH2 0x1461 DUP2 DUP8 PUSH2 0x1334 JUMP JUMPDEST SWAP1 POP PUSH2 0x1470 PUSH1 0xA0 DUP4 ADD DUP7 PUSH2 0x13EE JUMP JUMPDEST PUSH2 0x147D PUSH1 0xC0 DUP4 ADD DUP6 PUSH2 0x1377 JUMP JUMPDEST DUP2 DUP2 SUB PUSH1 0xE0 DUP4 ADD MSTORE PUSH2 0x148F DUP2 DUP5 PUSH2 0x1334 JUMP JUMPDEST SWAP1 POP SWAP10 SWAP9 POP POP POP POP POP POP POP POP POP JUMP JUMPDEST PUSH1 0x0 PUSH1 0x20 DUP3 ADD SWAP1 POP PUSH2 0x14B3 PUSH1 0x0 DUP4 ADD DUP5 PUSH2 0x1377 JUMP JUMPDEST SWAP3 SWAP2 POP POP JUMP JUMPDEST PUSH2 0x14C2 DUP2 PUSH2 0x136D JUMP JUMPDEST DUP2 EQ PUSH2 0x14CD JUMPI PUSH1 0x0 DUP1 REVERT JUMPDEST POP JUMP JUMPDEST PUSH1 0x0 DUP2 CALLDATALOAD SWAP1 POP PUSH2 0x14DF DUP2 PUSH2 0x14B9 JUMP JUMPDEST SWAP3 SWAP2 POP POP JUMP JUMPDEST PUSH1 0x0 PUSH1 0x20 DUP3 DUP5 SUB SLT ISZERO PUSH2 0x14FB JUMPI PUSH2 0x14FA PUSH2 0x1155 JUMP JUMPDEST JUMPDEST PUSH1 0x0 PUSH2 0x1509 DUP5 DUP3 DUP6 ADD PUSH2 0x14D0 JUMP JUMPDEST SWAP2 POP POP SWAP3 SWAP2 POP POP JUMP JUMPDEST PUSH1 0x0 PUSH20 0xFFFFFFFFFFFFFFFFFFFFFFFFFFFFFFFFFFFFFFFF DUP3 AND SWAP1 POP SWAP2 SWAP1 POP JUMP JUMPDEST PUSH1 0x0 PUSH2 0x153D DUP3 PUSH2 0x1512 JUMP JUMPDEST SWAP1 POP SWAP2 SWAP1 POP JUMP JUMPDEST PUSH2 0x154D DUP2 PUSH2 0x1532 JUMP JUMPDEST DUP3 MSTORE POP POP JUMP JUMPDEST PUSH1 0x0 PUSH2 0x120 DUP3 ADD SWAP1 POP DUP2 DUP2 SUB PUSH1 0x0 DUP4 ADD MSTORE PUSH2 0x156E DUP2 DUP13 PUSH2 0x1334 JUMP JUMPDEST SWAP1 POP DUP2 DUP2 SUB PUSH1 0x20 DUP4 ADD MSTORE PUSH2 0x1582 DUP2 DUP12 PUSH2 0x1334 JUMP JUMPDEST SWAP1 POP PUSH2 0x1591 PUSH1 0x40 DUP4 ADD DUP11 PUSH2 0x1377 JUMP JUMPDEST DUP2 DUP2 SUB PUSH1 0x60 DUP4 ADD MSTORE PUSH2 0x15A3 DUP2 DUP10 PUSH2 0x1334 JUMP JUMPDEST SWAP1 POP DUP2 DUP2 SUB PUSH1 0x80 DUP4 ADD MSTORE PUSH2 0x15B7 DUP2 DUP9 PUSH2 0x1334 JUMP JUMPDEST SWAP1 POP PUSH2 0x15C6 PUSH1 0xA0 DUP4 ADD DUP8 PUSH2 0x13EE JUMP JUMPDEST PUSH2 0x15D3 PUSH1 0xC0 DUP4 ADD DUP7 PUSH2 0x1544 JUMP JUMPDEST PUSH2 0x15E0 PUSH1 0xE0 DUP4 ADD DUP6 PUSH2 0x1377 JUMP JUMPDEST DUP2 DUP2 SUB PUSH2 0x100 DUP4 ADD MSTORE PUSH2 0x15F3 DUP2 DUP5 PUSH2 0x1334 JUMP JUMPDEST SWAP1 POP SWAP11 SWAP10 POP POP POP POP POP POP POP POP POP POP JUMP JUMPDEST PUSH1 0x6 DUP2 LT PUSH2 0x1610 JUMPI PUSH1 0x0 DUP1 REVERT JUMPDEST POP JUMP JUMPDEST PUSH1 0x0 DUP2 CALLDATALOAD SWAP1 POP PUSH2 0x1622 DUP2 PUSH2 0x1603 JUMP JUMPDEST SWAP3 SWAP2 POP POP JUMP JUMPDEST PUSH1 0x0 DUP1 PUSH1 0x0 PUSH1 0x60 DUP5 DUP7 SUB SLT ISZERO PUSH2 0x1641 JUMPI PUSH2 0x1640 PUSH2 0x1155 JUMP JUMPDEST JUMPDEST PUSH1 0x0 DUP5 ADD CALLDATALOAD PUSH8 0xFFFFFFFFFFFFFFFF DUP2 GT ISZERO PUSH2 0x165F JUMPI PUSH2 0x165E PUSH2 0x115A JUMP JUMPDEST JUMPDEST PUSH2 0x166B DUP7 DUP3 DUP8 ADD PUSH2 0x1277 JUMP JUMPDEST SWAP4 POP POP PUSH1 0x20 PUSH2 0x167C DUP7 DUP3 DUP8 ADD PUSH2 0x1613 JUMP JUMPDEST SWAP3 POP POP PUSH1 0x40 DUP5 ADD CALLDATALOAD PUSH8 0xFFFFFFFFFFFFFFFF DUP2 GT ISZERO PUSH2 0x169D JUMPI PUSH2 0x169C PUSH2 0x115A JUMP JUMPDEST JUMPDEST PUSH2 0x16A9 DUP7 DUP3 DUP8 ADD PUSH2 0x1277 JUMP JUMPDEST SWAP2 POP POP SWAP3 POP SWAP3 POP SWAP3 JUMP JUMPDEST PUSH1 0x0 DUP2 MLOAD SWAP1 POP SWAP2 SWAP1 POP JUMP JUMPDEST PUSH1 0x0 DUP3 DUP3 MSTORE PUSH1 0x20 DUP3 ADD SWAP1 POP SWAP3 SWAP2 POP POP JUMP JUMPDEST PUSH1 0x0 DUP2 SWAP1 POP PUSH1 0x20 DUP3 ADD SWAP1 POP SWAP2 SWAP1 POP JUMP JUMPDEST PUSH1 0x0 DUP3 DUP3 MSTORE PUSH1 0x20 DUP3 ADD SWAP1 POP SWAP3 SWAP2 POP POP JUMP JUMPDEST PUSH1 0x0 PUSH2 0x16FB DUP3 PUSH2 0x12EE JUMP JUMPDEST PUSH2 0x1705 DUP2 DUP6 PUSH2 0x16DF JUMP JUMPDEST SWAP4 POP PUSH2 0x1715 DUP2 DUP6 PUSH1 0x20 DUP7 ADD PUSH2 0x130A JUMP JUMPDEST PUSH2 0x171E DUP2 PUSH2 0x1169 JUMP JUMPDEST DUP5 ADD SWAP2 POP POP SWAP3 SWAP2 POP POP JUMP JUMPDEST PUSH2 0x1732 DUP2 PUSH2 0x136D JUMP JUMPDEST DUP3 MSTORE POP POP JUMP JUMPDEST PUSH2 0x1741 DUP2 PUSH2 0x13DC JUMP JUMPDEST DUP3 MSTORE POP POP JUMP JUMPDEST PUSH2 0x1750 DUP2 PUSH2 0x1532 JUMP JUMPDEST DUP3 MSTORE POP POP JUMP JUMPDEST PUSH1 0x0 PUSH2 0x120 DUP4 ADD PUSH1 0x0 DUP4 ADD MLOAD DUP5 DUP3 SUB PUSH1 0x0 DUP7 ADD MSTORE PUSH2 0x1774 DUP3 DUP3 PUSH2 0x16F0 JUMP JUMPDEST SWAP2 POP POP PUSH1 0x20 DUP4 ADD MLOAD DUP5 DUP3 SUB PUSH1 0x20 DUP7 ADD MSTORE PUSH2 0x178E DUP3 DUP3 PUSH2 0x16F0 JUMP JUMPDEST SWAP2 POP POP PUSH1 0x40 DUP4 ADD MLOAD PUSH2 0x17A3 PUSH1 0x40 DUP7 ADD DUP3 PUSH2 0x1729 JUMP JUMPDEST POP PUSH1 0x60 DUP4 ADD MLOAD DUP5 DUP3 SUB PUSH1 0x60 DUP7 ADD MSTORE PUSH2 0x17BB DUP3 DUP3 PUSH2 0x16F0 JUMP JUMPDEST SWAP2 POP POP PUSH1 0x80 DUP4 ADD MLOAD DUP5 DUP3 SUB PUSH1 0x80 DUP7 ADD MSTORE PUSH2 0x17D5 DUP3 DUP3 PUSH2 0x16F0 JUMP JUMPDEST SWAP2 POP POP PUSH1 0xA0 DUP4 ADD MLOAD PUSH2 0x17EA PUSH1 0xA0 DUP7 ADD DUP3 PUSH2 0x1738 JUMP JUMPDEST POP PUSH1 0xC0 DUP4 ADD MLOAD PUSH2 0x17FD PUSH1 0xC0 DUP7 ADD DUP3 PUSH2 0x1747 JUMP JUMPDEST POP PUSH1 0xE0 DUP4 ADD MLOAD PUSH2 0x1810 PUSH1 0xE0 DUP7 ADD DUP3 PUSH2 0x1729 JUMP JUMPDEST POP PUSH2 0x100 DUP4 ADD MLOAD DUP5 DUP3 SUB PUSH2 0x100 DUP7 ADD MSTORE PUSH2 0x182A DUP3 DUP3 PUSH2 0x16F0 JUMP JUMPDEST SWAP2 POP POP DUP1 SWAP2 POP POP SWAP3 SWAP2 POP POP JUMP JUMPDEST PUSH1 0x0 PUSH2 0x1843 DUP4 DUP4 PUSH2 0x1756 JUMP JUMPDEST SWAP1 POP SWAP3 SWAP2 POP POP JUMP JUMPDEST PUSH1 0x0 PUSH1 0x20 DUP3 ADD SWAP1 POP SWAP2 SWAP1 POP JUMP JUMPDEST PUSH1 0x0 PUSH2 0x1863 DUP3 PUSH2 0x16B3 JUMP JUMPDEST PUSH2 0x186D DUP2 DUP6 PUSH2 0x16BE JUMP JUMPDEST SWAP4 POP DUP4 PUSH1 0x20 DUP3 MUL DUP6 ADD PUSH2 0x187F DUP6 PUSH2 0x16CF JUMP JUMPDEST DUP1 PUSH1 0x0 JUMPDEST DUP6 DUP2 LT ISZERO PUSH2 0x18BB JUMPI DUP5 DUP5 SUB DUP10 MSTORE DUP2 MLOAD PUSH2 0x189C DUP6 DUP3 PUSH2 0x1837 JUMP JUMPDEST SWAP5 POP PUSH2 0x18A7 DUP4 PUSH2 0x184B JUMP JUMPDEST SWAP3 POP PUSH1 0x20 DUP11 ADD SWAP10 POP POP PUSH1 0x1 DUP2 ADD SWAP1 POP PUSH2 0x1883 JUMP JUMPDEST POP DUP3 SWAP8 POP DUP8 SWAP6 POP POP POP POP POP POP SWAP3 SWAP2 POP POP JUMP JUMPDEST PUSH1 0x0 PUSH1 0x20 DUP3 ADD SWAP1 POP DUP2 DUP2 SUB PUSH1 0x0 DUP4 ADD MSTORE PUSH2 0x18E7 DUP2 DUP5 PUSH2 0x1858 JUMP JUMPDEST SWAP1 POP SWAP3 SWAP2 POP POP JUMP JUMPDEST PUSH1 0x0 DUP1 PUSH1 0x0 DUP1 PUSH1 0x0 PUSH1 0xA0 DUP7 DUP9 SUB SLT ISZERO PUSH2 0x190B JUMPI PUSH2 0x190A PUSH2 0x1155 JUMP JUMPDEST JUMPDEST PUSH1 0x0 DUP7 ADD CALLDATALOAD PUSH8 0xFFFFFFFFFFFFFFFF DUP2 GT ISZERO PUSH2 0x1929 JUMPI PUSH2 0x1928 PUSH2 0x115A JUMP JUMPDEST JUMPDEST PUSH2 0x1935 DUP9 DUP3 DUP10 ADD PUSH2 0x1277 JUMP JUMPDEST SWAP6 POP POP PUSH1 0x20 DUP7 ADD CALLDATALOAD PUSH8 0xFFFFFFFFFFFFFFFF DUP2 GT ISZERO PUSH2 0x1956 JUMPI PUSH2 0x1955 PUSH2 0x115A JUMP JUMPDEST JUMPDEST PUSH2 0x1962 DUP9 DUP3 DUP10 ADD PUSH2 0x1277 JUMP JUMPDEST SWAP5 POP POP PUSH1 0x40 PUSH2 0x1973 DUP9 DUP3 DUP10 ADD PUSH2 0x14D0 JUMP JUMPDEST SWAP4 POP POP PUSH1 0x60 DUP7 ADD CALLDATALOAD PUSH8 0xFFFFFFFFFFFFFFFF DUP2 GT ISZERO PUSH2 0x1994 JUMPI PUSH2 0x1993 PUSH2 0x115A JUMP JUMPDEST JUMPDEST PUSH2 0x19A0 DUP9 DUP3 DUP10 ADD PUSH2 0x1277 JUMP JUMPDEST SWAP3 POP POP PUSH1 0x80 DUP7 ADD CALLDATALOAD PUSH8 0xFFFFFFFFFFFFFFFF DUP2 GT ISZERO PUSH2 0x19C1 JUMPI PUSH2 0x19C0 PUSH2 0x115A JUMP JUMPDEST JUMPDEST PUSH2 0x19CD DUP9 DUP3 DUP10 ADD PUSH2 0x1277 JUMP JUMPDEST SWAP2 POP POP SWAP3 SWAP6 POP SWAP3 SWAP6 SWAP1 SWAP4 POP JUMP JUMPDEST PUSH1 0x0 PUSH1 0x20 DUP3 ADD SWAP1 POP PUSH2 0x19EF PUSH1 0x0 DUP4 ADD DUP5 PUSH2 0x1544 JUMP JUMPDEST SWAP3 SWAP2 POP POP JUMP JUMPDEST PUSH1 0x0 DUP2 SWAP1 POP SWAP3 SWAP2 POP POP JUMP JUMPDEST PUSH1 0x0 PUSH2 0x1A0B DUP3 PUSH2 0x12EE JUMP JUMPDEST PUSH2 0x1A15 DUP2 DUP6 PUSH2 0x19F5 JUMP JUMPDEST SWAP4 POP PUSH2 0x1A25 DUP2 DUP6 PUSH1 0x20 DUP7 ADD PUSH2 0x130A JUMP JUMPDEST DUP1 DUP5 ADD SWAP2 POP POP SWAP3 SWAP2 POP POP JUMP JUMPDEST PUSH1 0x0 PUSH2 0x1A3D DUP3 DUP5 PUSH2 0x1A00 JUMP JUMPDEST SWAP2 POP DUP2 SWAP1 POP SWAP3 SWAP2 POP POP JUMP JUMPDEST PUSH32 0x43617365206E6F7420666F756E64000000000000000000000000000000000000 PUSH1 0x0 DUP3 ADD MSTORE POP JUMP JUMPDEST PUSH1 0x0 PUSH2 0x1A7E PUSH1 0xE DUP4 PUSH2 0x12F9 JUMP JUMPDEST SWAP2 POP PUSH2 0x1A89 DUP3 PUSH2 0x1A48 JUMP JUMPDEST PUSH1 0x20 DUP3 ADD SWAP1 POP SWAP2 SWAP1 POP JUMP JUMPDEST PUSH1 0x0 PUSH1 0x20 DUP3 ADD SWAP1 POP DUP2 DUP2 SUB PUSH1 0x0 DUP4 ADD MSTORE PUSH2 0x1AAD DUP2 PUSH2 0x1A71 JUMP JUMPDEST SWAP1 POP SWAP2 SWAP1 POP JUMP JUMPDEST PUSH32 0x4E487B7100000000000000000000000000000000000000000000000000000000 PUSH1 0x0 MSTORE PUSH1 0x11 PUSH1 0x4 MSTORE PUSH1 0x24 PUSH1 0x0 REVERT JUMPDEST PUSH1 0x0 PUSH2 0x1AEE DUP3 PUSH2 0x136D JUMP JUMPDEST SWAP2 POP PUSH2 0x1AF9 DUP4 PUSH2 0x136D JUMP JUMPDEST SWAP3 POP DUP3 DUP3 SUB SWAP1 POP DUP2 DUP2 GT ISZERO PUSH2 0x1B11 JUMPI PUSH2 0x1B10 PUSH2 0x1AB4 JUMP JUMPDEST JUMPDEST SWAP3 SWAP2 POP POP JUMP JUMPDEST PUSH32 0x4E487B7100000000000000000000000000000000000000000000000000000000 PUSH1 0x0 MSTORE PUSH1 0x32 PUSH1 0x4 MSTORE PUSH1 0x24 PUSH1 0x0 REVERT JUMPDEST PUSH32 0x4E487B7100000000000000000000000000000000000000000000000000000000 PUSH1 0x0 MSTORE PUSH1 0x22 PUSH1 0x4 MSTORE PUSH1 0x24 PUSH1 0x0 REVERT JUMPDEST PUSH1 0x0 PUSH1 0x2 DUP3 DIV SWAP1 POP PUSH1 0x1 DUP3 AND DUP1 PUSH2 0x1B8D JUMPI PUSH1 0x7F DUP3 AND SWAP2 POP JUMPDEST PUSH1 0x20 DUP3 LT DUP2 SUB PUSH2 0x1BA0 JUMPI PUSH2 0x1B9F PUSH2 0x1B46 JUMP JUMPDEST JUMPDEST POP SWAP2 SWAP1 POP JUMP JUMPDEST PUSH32 0x4E6F7420617574686F72697A6564000000000000000000000000000000000000 PUSH1 0x0 DUP3 ADD MSTORE POP JUMP JUMPDEST PUSH1 0x0 PUSH2 0x1BDC PUSH1 0xE DUP4 PUSH2 0x12F9 JUMP JUMPDEST SWAP2 POP PUSH2 0x1BE7 DUP3 PUSH2 0x1BA6 JUMP JUMPDEST PUSH1 0x20 DUP3 ADD SWAP1 POP SWAP2 SWAP1 POP JUMP JUMPDEST PUSH1 0x0 PUSH1 0x20 DUP3 ADD SWAP1 POP DUP2 DUP2 SUB PUSH1 0x0 DUP4 ADD MSTORE PUSH2 0x1C0B DUP2 PUSH2 0x1BCF JUMP JUMPDEST SWAP1 POP SWAP2 SWAP1 POP JUMP JUMPDEST PUSH1 0x0 DUP2 SWAP1 POP DUP2 PUSH1 0x0 MSTORE PUSH1 0x20 PUSH1 0x0 KECCAK256 SWAP1 POP SWAP2 SWAP1 POP JUMP JUMPDEST PUSH1 0x0 PUSH1 0x20 PUSH1 0x1F DUP4 ADD DIV SWAP1 POP SWAP2 SWAP1 POP JUMP JUMPDEST PUSH1 0x0 DUP3 DUP3 SHL SWAP1 POP SWAP3 SWAP2 POP POP JUMP JUMPDEST PUSH1 0x0 PUSH1 0x8 DUP4 MUL PUSH2 0x1C74 PUSH32 0xFFFFFFFFFFFFFFFFFFFFFFFFFFFFFFFFFFFFFFFFFFFFFFFFFFFFFFFFFFFFFFFF DUP3 PUSH2 0x1C37 JUMP JUMPDEST PUSH2 0x1C7E DUP7 DUP4 PUSH2 0x1C37 JUMP JUMPDEST SWAP6 POP DUP1 NOT DUP5 AND SWAP4 POP DUP1 DUP7 AND DUP5 OR SWAP3 POP POP POP SWAP4 SWAP3 POP POP POP JUMP JUMPDEST PUSH1 0x0 DUP2 SWAP1 POP SWAP2 SWAP1 POP JUMP JUMPDEST PUSH1 0x0 PUSH2 0x1CBB PUSH2 0x1CB6 PUSH2 0x1CB1 DUP5 PUSH2 0x136D JUMP JUMPDEST PUSH2 0x1C96 JUMP JUMPDEST PUSH2 0x136D JUMP JUMPDEST SWAP1 POP SWAP2 SWAP1 POP JUMP JUMPDEST PUSH1 0x0 DUP2 SWAP1 POP SWAP2 SWAP1 POP JUMP JUMPDEST PUSH2 0x1CD5 DUP4 PUSH2 0x1CA0 JUMP JUMPDEST PUSH2 0x1CE9 PUSH2 0x1CE1 DUP3 PUSH2 0x1CC2 JUMP JUMPDEST DUP5 DUP5 SLOAD PUSH2 0x1C44 JUMP JUMPDEST DUP3 SSTORE POP POP POP POP JUMP JUMPDEST PUSH1 0x0 SWAP1 JUMP JUMPDEST PUSH2 0x1CFE PUSH2 0x1CF1 JUMP JUMPDEST PUSH2 0x1D09 DUP2 DUP5 DUP5 PUSH2 0x1CCC JUMP JUMPDEST POP POP POP JUMP JUMPDEST JUMPDEST DUP2 DUP2 LT ISZERO PUSH2 0x1D2D JUMPI PUSH2 0x1D22 PUSH1 0x0 DUP3 PUSH2 0x1CF6 JUMP JUMPDEST PUSH1 0x1 DUP2 ADD SWAP1 POP PUSH2 0x1D0F JUMP JUMPDEST POP POP JUMP JUMPDEST PUSH1 0x1F DUP3 GT ISZERO PUSH2 0x1D72 JUMPI PUSH2 0x1D43 DUP2 PUSH2 0x1C12 JUMP JUMPDEST PUSH2 0x1D4C DUP5 PUSH2 0x1C27 JUMP JUMPDEST DUP2 ADD PUSH1 0x20 DUP6 LT ISZERO PUSH2 0x1D5B JUMPI DUP2 SWAP1 POP JUMPDEST PUSH2 0x1D6F PUSH2 0x1D67 DUP6 PUSH2 0x1C27 JUMP JUMPDEST DUP4 ADD DUP3 PUSH2 0x1D0E JUMP JUMPDEST POP POP JUMPDEST POP POP POP JUMP JUMPDEST PUSH1 0x0 DUP3 DUP3 SHR SWAP1 POP SWAP3 SWAP2 POP POP JUMP JUMPDEST PUSH1 0x0 PUSH2 0x1D95 PUSH1 0x0 NOT DUP5 PUSH1 0x8 MUL PUSH2 0x1D77 JUMP JUMPDEST NOT DUP1 DUP4 AND SWAP2 POP POP SWAP3 SWAP2 POP POP JUMP JUMPDEST PUSH1 0x0 PUSH2 0x1DAE DUP4 DUP4 PUSH2 0x1D84 JUMP JUMPDEST SWAP2 POP DUP3 PUSH1 0x2 MUL DUP3 OR SWAP1 POP SWAP3 SWAP2 POP POP JUMP JUMPDEST PUSH2 0x1DC7 DUP3 PUSH2 0x12EE JUMP JUMPDEST PUSH8 0xFFFFFFFFFFFFFFFF DUP2 GT ISZERO PUSH2 0x1DE0 JUMPI PUSH2 0x1DDF PUSH2 0x117A JUMP JUMPDEST JUMPDEST PUSH2 0x1DEA DUP3 SLOAD PUSH2 0x1B75 JUMP JUMPDEST PUSH2 0x1DF5 DUP3 DUP3 DUP6 PUSH2 0x1D31 JUMP JUMPDEST PUSH1 0x0 PUSH1 0x20 SWAP1 POP PUSH1 0x1F DUP4 GT PUSH1 0x1 DUP2 EQ PUSH2 0x1E28 JUMPI PUSH1 0x0 DUP5 ISZERO PUSH2 0x1E16 JUMPI DUP3 DUP8 ADD MLOAD SWAP1 POP JUMPDEST PUSH2 0x1E20 DUP6 DUP3 PUSH2 0x1DA2 JUMP JUMPDEST DUP7 SSTORE POP PUSH2 0x1E88 JUMP JUMPDEST PUSH1 0x1F NOT DUP5 AND PUSH2 0x1E36 DUP7 PUSH2 0x1C12 JUMP JUMPDEST PUSH1 0x0 JUMPDEST DUP3 DUP2 LT ISZERO PUSH2 0x1E5E JUMPI DUP5 DUP10 ADD MLOAD DUP3 SSTORE PUSH1 0x1 DUP3 ADD SWAP2 POP PUSH1 0x20 DUP6 ADD SWAP5 POP PUSH1 0x20 DUP2 ADD SWAP1 POP PUSH2 0x1E39 JUMP JUMPDEST DUP7 DUP4 LT ISZERO PUSH2 0x1E7B JUMPI DUP5 DUP10 ADD MLOAD PUSH2 0x1E77 PUSH1 0x1F DUP10 AND DUP3 PUSH2 0x1D84 JUMP JUMPDEST DUP4 SSTORE POP JUMPDEST PUSH1 0x1 PUSH1 0x2 DUP9 MUL ADD DUP9 SSTORE POP POP POP JUMPDEST POP POP POP POP POP POP JUMP JUMPDEST PUSH1 0x0 PUSH1 0x80 DUP3 ADD SWAP1 POP DUP2 DUP2 SUB PUSH1 0x0 DUP4 ADD MSTORE PUSH2 0x1EAA DUP2 DUP8 PUSH2 0x1334 JUMP JUMPDEST SWAP1 POP PUSH2 0x1EB9 PUSH1 0x20 DUP4 ADD DUP7 PUSH2 0x13EE JUMP JUMPDEST DUP2 DUP2 SUB PUSH1 0x40 DUP4 ADD MSTORE PUSH2 0x1ECB DUP2 DUP6 PUSH2 0x1334 JUMP JUMPDEST SWAP1 POP PUSH2 0x1EDA PUSH1 0x60 DUP4 ADD DUP5 PUSH2 0x1377 JUMP JUMPDEST SWAP6 SWAP5 POP POP POP POP POP JUMP JUMPDEST PUSH1 0x0 PUSH1 0xA0 DUP3 ADD SWAP1 POP DUP2 DUP2 SUB PUSH1 0x0 DUP4 ADD MSTORE PUSH2 0x1EFD DUP2 DUP9 PUSH2 0x1334 JUMP JUMPDEST SWAP1 POP DUP2 DUP2 SUB PUSH1 0x20 DUP4 ADD MSTORE PUSH2 0x1F11 DUP2 DUP8 PUSH2 0x1334 JUMP JUMPDEST SWAP1 POP PUSH2 0x1F20 PUSH1 0x40 DUP4 ADD DUP7 PUSH2 0x1377 JUMP JUMPDEST DUP2 DUP2 SUB PUSH1 0x60 DUP4 ADD MSTORE PUSH2 0x1F32 DUP2 DUP6 PUSH2 0x1334 JUMP JUMPDEST SWAP1 POP PUSH2 0x1F41 PUSH1 0x80 DUP4 ADD DUP5 PUSH2 0x1377 JUMP JUMPDEST SWAP7 SWAP6 POP POP POP POP POP POP JUMP INVALID LOG2 PUSH5 0x6970667358 0x22 SLT KECCAK256 PUSH18 0x1B1147B5DB5951F1470421EED0F36C5619F1 0xCC CREATE2 KECCAK256 0x4D 0xAC 0xDD PUSH15 0xB9523188A64764736F6C6343000814 STOP CALLER "},"methodIdentifiers":{"admin()":"f851a440","caseIdToIndex(string)":"81971d55","getAllReports()":"f3d3ddfa","getReport(string)":"12e63d71","getReportCount()":"cad9642b","reports(uint256)":"c942adf7","submitReport(string,string,uint256,string,string)":"f7d82a9a","updateStatus(string,uint8,string)":"d10e516a"}}}}}